00COTAHIST.2026BOVESPA 20260204                                                                                                                                                                                                                      
012026020402NATU3       010NATURA      ON      NM   R$  000000000088400000000008940000000000871000000000088100000000008740000000000874000000000087814737000000000008899800000000007845064800000000000000009999123100000010000000000000BRNATUACNOR6137
012026020402PETR3       010PETROBRAS   ON      N2   R$  000000000398100000000040180000000003943000000000397900000000039850000000003985000000000398818938000000000012352900000000049158834000000000000000009999123100000010000000000000BRPETRACNOR9212
012026020402PETR4       010PETROBRAS   PN      N2   R$  000000000374500000000037720000000003697000000000373700000000037520000000003752000000000375349574000000000037955800000000141861445600000000000000009999123100000010000000000000BRPETRACNPR6223
012026020402RAIL3       010RUMO S.A.   ON      NM   R$  000000000150000000000015270000000001487000000000150900000000015270000000001520000000000152724889000000000014822600000000022380191600000000000000009999123100000010000000000000BRRAILACNOR9106
012026020402SAPR11      010SANEPAR     UNT     N2   R$  000000000467700000000047110000000004531000000000462100000000046310000000004600000000000463406733000000000001590900000000007351864200000000000000009999123100000010000000000000BRSAPRCDAM13121
012026020402RNEW3       010RENOVA      ON      N2   R$  000000000010900000000001090000000000106000000000010700000000001080000000000107000000000010800048000000000000030600000000000003275000000000000000009999123100000010000000000000BRRNEWACNOR8113
012026020402RNEW4       010RENOVA      PN      N2   R$  000000000009200000000000960000000000091000000000009200000000000930000000000091000000000009300062000000000000084800000000000007844600000000000000009999123100000010000000000000BRRNEWACNPR5113
012026020402ROMI3       010ROMI        ON      NM   R$  000000000083500000000008780000000000834000000000085500000000008410000000000841000000000085002037000000000000537100000000000459229300000000000000009999123100000010000000000000BRROMIACNOR8201
012026020402SMFT3       010SMART FIT   ON      NM   R$  000000000223600000000022680000000002181000000000221200000000022010000000002200000000000220118727000000000004521500000000010002679500000000000000009999123100000010000000000000BRSMFTACNOR1118
012026020402SMTO3       010SAO MARTINHOON      NM   R$  000000000158800000000015880000000001499000000000152200000000014990000000001499000000000150106753000000000003539700000000005388225600000000000000009999123100000010000000000000BRSMTOACNOR3129
012026020402IFCM3       010INFRACOMM   ON      NM   R$  000000000006600000000000660000000000060000000000006200000000000610000000000060000000000006100723000000000001066800000000000066432100000000000000009999123100000010000000000000BRIFCMACNOR8109
012026020402IGTI11      010IGUATEMI S.AUNT     N1   R$  000000000285000000000028500000000002771000000000280000000000028100000000002794000000000281013182000000000002777600000000007777630700000000000000009999123100000010000000000000BRIGTICDAM16108
012026020402IGTI3       010IGUATEMI S.AON      N1   R$  000000000033700000000003390000000000326000000000032900000000003340000000000325000000000033400055000000000000019800000000000006529400000000000000009999123100000010000000000000BRIGTIACNOR8108
012026020402INEP3       010INEPAR      ON           R$  000000000016100000000001660000000000151000000000015800000000001570000000000152000000000015700056000000000000031100000000000004934900000000000000009999123100000010000000000000BRINEPACNOR1145
012026020402INEP4       010INEPAR      PN           R$  000000000012900000000001320000000000126000000000012800000000001280000000000126000000000012800021000000000000022500000000000002886700000000000000009999123100000010000000000000BRINEPACNPR8145
012026020402INTB3       010INTELBRAS   ON      NM   R$  000000000127700000000012770000000001214000000000123300000000012240000000001219000000000122406153000000000002183900000000002693169700000000000000009999123100000010000000000000BRINTBACNOR9115
012026020402IRBR3       010IRBBRASIL REON      NM   R$  000000000586600000000058660000000005702000000000576200000000057350000000005732000000000575003214000000000000520900000000003001446200000000000000009999123100000010000000000000BRIRBRACNOR4113
012026020402MELK3       010MELNICK     ON      NM   R$  000000000040000000000004020000000000387000000000039200000000003940000000000391000000000039401468000000000000610300000000000239476700000000000000009999123100000010000000000000BRMELKACNOR8116
012026020402MERC4       010MERC FINANC PN           R$  000000000148000000000014800000000001480000000000148000000000014800000000001435000000000158000003000000000000000800000000000001184000000000000000009999123100000010000000000000BRMERCACNPR9182
012026020402MGEL4       010MANGELS INDLPN           R$  000000000068500000000007000000000000685000000000069000000000007000000000000680000000000071100003000000000000000300000000000000207000000000000000009999123100000010000000000000BRMGELACNPR3147
012026020402MGLU3       010MAGAZ LUIZA ON      NM   R$  000000000100000000000010170000000000966000000000098600000000009730000000000973000000000097420607000000000021355600000000021072493800000000000000009999123100000010000000000000BRMGLUACNOR2130
012026020402RECV3       010PETRORECSA  ON      NM   R$  000000000111700000000011190000000001077000000000109000000000010820000000001082000000000108606573000000000002914400000000003178404600000000000000009999123100000010000000000000BRRECVACNOR3110
012026020402GGPS3       010GPS         ON      NM   R$  000000000188200000000018890000000001824000000000185300000000018580000000001850000000000186212277000000000002615000000000004847993000000000000000009999123100000010000000000000BRGGPSACNOR9106
012026020402PCAR3       010P.ACUCAR-CBDON      NM   R$  000000000038600000000003870000000000366000000000037600000000003810000000000380000000000038108092000000000014596100000000005493533800000000000000009999123100000010000000000000BRPCARACNOR3170
012026020402PDGR3       010PDG REALT   ON      NM   R$  000000000029100000000002940000000000274000000000028000000000002770000000000277000000000028000236000000000000156800000000000044045800000000000000009999123100000010000000000000BRPDGRACNOR8123
012026020402PDTC3       010PADTEC      ON      NM   R$  000000000017200000000001770000000000163000000000016800000000001670000000000165000000000016700133000000000000038600000000000006518200000000000000009999123100000010000000000000BRPDTCACNOR3101
012026020402RAPT3       010RANDON PART ON      N1   R$  000000000064600000000006520000000000635000000000064100000000006410000000000637000000000064200046000000000000020700000000000013280800000000000000009999123100000010000000000000BRRAPTACNOR7166
012026020402RAPT4       010RANDON PART PN      N1   R$  000000000064300000000006450000000000628000000000063300000000006320000000000632000000000063609004000000000006550200000000004151017500000000000000009999123100000010000000000000BRRAPTACNPR4166
012026020402MATD3       010MATER DEI   ON      NM   R$  000000000060500000000006050000000000560000000000057100000000005790000000000569000000000057902128000000000000298100000000000170402300000000000000009999123100000010000000000000BRMATDACNOR4106
012026020402MBRF3       010MARFRIG     ON      NM   R$  000000000191000000000019240000000001836000000000187800000000018920000000001890000000000189416300000000000008639800000000016225985200000000000000009999123100000010000000000000BRMBRFACNOR1100
012026020402RCSL3       010RECRUSUL    ON           R$  000000000029800000000003000000000000289000000000029400000000002920000000000291000000000029200204000000000000151500000000000044655400000000000000009999123100000010000000000000BRRCSLACNOR4134
012026020402RCSL4       010RECRUSUL    PN           R$  000000000075500000000008150000000000711000000000077200000000007870000000000786000000000078707445000000000004566500000000003528540100000000000000009999123100000010000000000000BRRCSLACNPR1134
012026020402RDOR3       010REDE D OR   ON      NM   R$  000000000426500000000042860000000004087000000000417300000000041660000000004153000000000416716337000000000004810000000000020073517300000000000000009999123100000010000000000000BRRDORACNOR8119
012026020402QUAL3       010QUALICORP   ON      NM   R$  000000000023400000000002360000000000217000000000022300000000002170000000000217000000000021802847000000000005292300000000001180196500000000000000009999123100000010000000000000BRQUALACNOR6122
012026020402RADL3       010RAIADROGASILON      NM   R$  000000000266800000000026680000000002487000000000255800000000025590000000002558000000000256130113000000000008117200000000020771697000000000000000009999123100000010000000000000BRRADLACNOR0165
012026020402RPAD5       010ALFA HOLDINGPNA          R$  000000000064100000000006410000000000641000000000064100000000006410000000000645000000000070000001000000000000000100000000000000064100000000000000009999123100000010000000000000BRRPADACNPA4222
012026020402NEOE3       010NEOENERGIA  ON      NM   R$  000000000324700000000032470000000003240000000000324300000000032460000000003241000000000324602016000000000001134000000000003678221800000000000000009999123100000010000000000000BRNEOEACNOR3127
012026020402NGRD3       010NEOGRID     ON      NM   R$  000000000270500000000027060000000002670000000000269300000000026700000000002670000000000269900024000000000000004700000000000012657700000000000000009999123100000010000000000000BRNGRDACNOR3106
012026020402NUTR3       010NUTRIPLANT  ON      MA   R$  000000000025500000000002560000000000251000000000025300000000002560000000000252000000000025600017000000000000002100000000000000531800000000000000009999123100000010000000000000BRNUTRACNOR0104
012026020402MULT3       010MULTIPLAN   ON      N2   R$  000000000330100000000033120000000003232000000000327200000000032910000000003274000000000329117744000000000005127400000000016778821600000000000000009999123100000010000000000000BRMULTACNOR5145
012026020402PFRM3       010PROFARMA    ON      NM   R$  000000000091400000000009140000000000855000000000086800000000008550000000000855000000000085901679000000000000578000000000000502065700000000000000009999123100000010000000000000BRPFRMACNOR1122
012026020402PGMN3       010PAGUE MENOS ON      NM   R$  000000000068100000000006820000000000640000000000065700000000006560000000000656000000000066010096000000000003769200000000002476521200000000000000009999123100000010000000000000BRPGMNACNOR8106
012026020402PINE3       010PINE        ON      N2   R$  000000000127800000000013140000000001180000000000120900000000011970000000001196000000000119700053000000000000016400000000000019831900000000000000009999123100000010000000000000BRPINEACNOR1160
012026020402PINE4       010PINE        PN      N2   R$  000000000137500000000013760000000001281000000000132100000000013600000000001327000000000136702622000000000000829900000000001096392600000000000000009999123100000010000000000000BRPINEACNPR8160
012026020402ABEV3       010AMBEV S/A   ON           R$  000000000152800000000015430000000001521000000000153000000000015300000000001529000000000153027644000000000027049700000000041397733300000000000000009999123100000010000000000000BRABEVACNOR1134
012026020402BBDC3       010BRADESCO    ON  EJ  N1   R$  000000000182900000000018390000000001779000000000180500000000018050000000001805000000000180613671000000000006781900000000012247325000000000000000009999123100000010000000000000BRBBDCACNOR1797
012026020402BBDC4       010BRADESCO    PN  EJ  N1   R$  000000000212900000000021420000000002066000000000209700000000020980000000002098000000000209949666000000000046217700000000096962710200000000000000009999123100000010000000000000BRBBDCACNPR8797
012026020402ITSA4       010ITAUSA      PN      N1   R$  000000000139200000000013940000000001339000000000135900000000013580000000001354000000000135934599000000000046662400000000063415650800000000000000009999123100000010000000000000BRITSAACNPR7455
012026020402KLBN11      010KLABIN S/A  UNT     N2   R$  000000000192200000000019450000000001906000000000192700000000019320000000001928000000000193413362000000000005030700000000009694735100000000000000009999123100000010000000000000BRKLBNCDAM18151
012026020402KLBN3       010KLABIN S/A  ON      N2   R$  000000000038500000000003900000000000382000000000038500000000003880000000000387000000000038801002000000000000674200000000000259834700000000000000009999123100000010000000000000BRKLBNACNOR2179
012026020402KLBN4       010KLABIN S/A  PN      N2   R$  000000000038400000000003890000000000381000000000038500000000003850000000000385000000000038602155000000000003777800000000001454823100000000000000009999123100000010000000000000BRKLBNACNPR9179
012026020402SANB11      010SANTANDER BRUNT          R$  000000000353600000000035930000000003455000000000350900000000034970000000003497000000000349840573000000000015939300000000055946415700000000000000009999123100000010000000000000BRSANBCDAM13172
012026020402SANB3       010SANTANDER BRON           R$  000000000175900000000017730000000001700000000000173500000000017160000000001704000000000171700507000000000000116500000000000202205700000000000000009999123100000010000000000000BRSANBACNOR8179
012026020402SANB4       010SANTANDER BRPN           R$  000000000177100000000018170000000001738000000000177400000000017770000000001763000000000177900547000000000000121300000000000215259000000000000000009999123100000010000000000000BRSANBACNPR5179
012026020402SNSY5       010SANSUY      PNA          R$  000000000028000000000002870000000000258000000000026500000000002580000000000257000000000027400026000000000000012100000000000003208800000000000000009999123100000010000000000000BRSNSYACNPA5111
012026020402SOJA3       010BOA SAFRA   ON      NM   R$  000000000088400000000008880000000000865000000000087100000000008650000000000865000000000086902753000000000000927000000000000808230000000000000000009999123100000010000000000000BRSOJAACNOR9109
012026020402MDIA3       010M.DIASBRANCOON      NM   R$  000000000251500000000025150000000002461000000000248600000000024910000000002473000000000249101938000000000000332800000000000827475900000000000000009999123100000010000000000000BRMDIAACNOR7150
012026020402OPCT3       010OCEANPACT   ON      NM   R$  000000000096400000000009640000000000926000000000093700000000009350000000000929000000000093602931000000000000683900000000000640830300000000000000009999123100000010000000000000BROPCTACNOR0100
012026020402ORVR3       010ORIZON      ON      NM   R$  000000000756000000000075740000000007216000000000733800000000072820000000007262000000000728603479000000000000500100000000003670041300000000000000009999123100000010000000000000BRORVRACNOR0101
012026020402PRIO3       010PETRORIO    ON      NM   R$  000000000514600000000051460000000005001000000000505000000000050250000000005021000000000502539596000000000012570600000000063490438600000000000000009999123100000010000000000000BRPRIOACNOR1111
012026020402RAIZ4       010RAIZEN      PN      N2   R$  000000000009800000000001010000000000085000000000009100000000000850000000000085000000000008617219000000000048685000000000004440469500000000000000009999123100000010000000000000BRRAIZACNPR6112
012026020402RANI3       010IRANI       ON      NM   R$  000000000092400000000009240000000000897000000000090400000000009000000000000900000000000090501513000000000000448900000000000406240900000000000000009999123100000010000000000000BRRANIACNOR5079
012026020402ITUB3       010ITAUUNIBANCOON  EJ  N1   R$  000000000428800000000042880000000004113000000000416700000000041570000000004143000000000415904976000000000001051000000000004380074500000000000000009999123100000010000000000000BRITUBACNOR4365
012026020402ITUB4       010ITAUUNIBANCOPN  EJ  N1   R$  000000000459000000000045980000000004404000000000446900000000044620000000004455000000000446363787000000000048683500000000217601275100000000000000009999123100000010000000000000BRITUBACNPR1365
012026020402LUPA3       010LUPATECH    ON      NM   R$  000000000012100000000001210000000000113000000000011600000000001170000000000116000000000011700124000000000000178100000000000020808600000000000000009999123100000010000000000000BRLUPAACNOR8112
012026020402LUXM4       010TREVISA     PN           R$  000000000045900000000004590000000000418000000000042700000000004180000000000418000000000044000027000000000000012300000000000005261300000000000000009999123100000010000000000000BRLUXMACNPR4053
012026020402LWSA3       010LWSA        ON      NM   R$  000000000048000000000004800000000000439000000000044500000000004400000000000439000000000044019402000000000016767200000000007472143000000000000000009999123100000010000000000000BRLWSAACNOR8105
012026020402MWET4       010WETZEL S/A  PN           R$  000000000130800000000013080000000001021000000000117500000000010210000000001023000000000114900017000000000000002900000000000003409000000000000000009999123100000010000000000000BRMWETACNPR3118
012026020402MYPK3       010IOCHP-MAXIONON      NM   R$  000000000107100000000010900000000001057000000000106700000000010720000000001065000000000107204177000000000001552100000000001656395000000000000000009999123100000010000000000000BRMYPKACNOR7158
012026020402AALR3       010ALLIAR      ON      NM   R$  000000000043000000000004300000000000412000000000041700000000004180000000000412000000000041800130000000000000075700000000000031583100000000000000009999123100000010000000000000BRAALRACNOR6104
012026020402ABCB4       010ABC BRASIL  PN      N2   R$  000000000274900000000027490000000002633000000000266300000000026610000000002645000000000266102976000000000000558100000000001486374400000000000000009999123100000010000000000000BRABCBACNPR4150
012026020402CEBR3       010CEB         ON           R$  000000000315100000000032100000000003141000000000316800000000032000000000003006000000000320000014000000000000001400000000000004435700000000000000009999123100000010000000000000BRCEBRACNOR5129
012026020402CEBR5       010CEB         PNA          R$  000000000279400000000027950000000002794000000000279400000000027950000000002755000000000279000002000000000000000700000000000001956200000000000000009999123100000010000000000000BRCEBRACNPA8128
012026020402CEBR6       010CEB         PNB          R$  000000000299000000000030290000000002967000000000301000000000030290000000003004000000000302900018000000000000006300000000000018967500000000000000009999123100000010000000000000BRCEBRACNPB6128
012026020402CEDO4       010CEDRO       PN      N1   R$  000000000093000000000009300000000000930000000000093000000000009300000000000930000000000094100001000000000000000100000000000000093000000000000000009999123100000010000000000000BRCEDOACNPR5128
012026020402CEEB3       010COELBA      ON           R$  000000000452300000000045950000000004523000000000455900000000045950000000004523000000000468300002000000000000000200000000000000911800000000000000009999123100000010000000000000BRCEEBACNOR3207
012026020402CGAS3       010COMGAS      ON           R$  000000001301000000000130100000000013010000000001301000000000130100000000012700000000001300000001000000000000000100000000000001301000000000000000009999123100000010000000000000BRCGASACNOR0168
012026020402CGAS5       010COMGAS      PNA          R$  000000001336500000000133650000000013365000000001336500000000133650000000013203000000001336500002000000000000000400000000000005346000000000000000009999123100000010000000000000BRCGASACNPA3165
012026020402CGRA3       010GRAZZIOTIN  ON           R$  000000000274200000000028170000000002742000000000278700000000028110000000002703000000000281500022000000000000002900000000000008084800000000000000009999123100000010000000000000BRCGRAACNOR2088
012026020402CGRA4       010GRAZZIOTIN  PN           R$  000000000275300000000027610000000002664000000000270800000000026640000000002664000000000271200049000000000000006700000000000018144900000000000000009999123100000010000000000000BRCGRAACNPR9088
012026020402BIOM3       010BIOMM       ON      MA   R$  000000000063700000000006370000000000592000000000060700000000005990000000000598000000000059900228000000000000055900000000000033963000000000000000009999123100000010000000000000BRBIOMACNOR2113
012026020402BLAU3       010BLAU        ON      NM   R$  000000000104600000000010460000000000998000000000101700000000010290000000001028000000000102903287000000000000728300000000000741271900000000000000009999123100000010000000000000BRBLAUACNOR8120
012026020402BIED3       010BIOMA EDUC  ON      MA   R$  000000000047900000000004950000000000450000000000047500000000004880000000000445000000000048300041000000000000016600000000000007888100000000000000009999123100000010000000000000BRBIEDACNOR2101
012026020402BMEB3       010MERCANTIL   ON      N1   R$  000000000610100000000062010000000005959000000000612100000000060850000000006085000000000619900033000000000000004500000000000027546000000000000000009999123100000010000000000000BRBMEBACNOR8210
012026020402BMEB4       010MERCANTIL   PN      N1   R$  000000000786600000000078900000000007535000000000773600000000077450000000007576000000000774600350000000000000042800000000000331105200000000000000009999123100000010000000000000BRBMEBACNPR5215
012026020402BMGB4       010BANCO BMG   PN  ES  N1   R$  000000000049800000000005000000000000488000000000049400000000004880000000000488000000000049602293000000000001094000000000000541037200000000000000009999123100000010000000000000BRBMGBACNPR0118
012026020402BMIN4       010MERC INVEST PN           R$  000000000193600000000020800000000001935000000000197100000000020800000000001940000000000207500004000000000000000400000000000000788600000000000000009999123100000010000000000000BRBMINACNPR1177
012026020402BMKS3       010BIC MONARK  ON           R$  000000003876500000000387850000000037535000000003788700000000378000000000037800000000003809900047000000000000000284000000000010760169000000000000009999123100000010000000000000BRBMKSACNOR9169
012026020402BMOB3       010BEMOBI TECH ON      NM   R$  000000000247900000000024790000000002256000000000231600000000022860000000002259000000000228902811000000000000641200000000001485522200000000000000009999123100000010000000000000BRBMOBACNOR7107
012026020402CLSC3       010CELESC      ON      N2   R$  000000001300000000000130000000000013000000000001300000000000130000000000012400000000001300000001000000000000000100000000000001300000000000000000009999123100000010000000000000BRCLSCACNOR6159
012026020402CLSC4       010CELESC      PN      N2   R$  000000001390100000000140990000000013871000000001400400000000140790000000013950000000001407900018000000000000001800000000000025207700000000000000009999123100000010000000000000BRCLSCACNPR3138
012026020402CMIG3       010CEMIG       ON      N1   R$  000000000152900000000015290000000001495000000000150900000000015050000000001500000000000150500657000000000000097700000000000147453300000000000000009999123100000010000000000000BRCMIGACNOR6251
012026020402CMIG4       010CEMIG       PN      N1   R$  000000000117600000000011780000000001145000000000115800000000011560000000001154000000000115618070000000000012555600000000014543445600000000000000009999123100000010000000000000BRCMIGACNPR3252
012026020402CSUD3       010CSU DIGITAL ON      NM   R$  000000000189500000000018950000000001850000000000186800000000018920000000001877000000000189200326000000000000056800000000000106135400000000000000009999123100000010000000000000BRCSUDACNOR5117
012026020402CURY3       010CURY S/A    ON      NM   R$  000000000363900000000036880000000003526000000000360100000000035930000000003593000000000359513157000000000003002600000000010815056900000000000000009999123100000010000000000000BRCURYACNOR3115
012026020402CVCB3       010CVC BRASIL  ON      NM   R$  000000000025000000000002580000000000245000000000025200000000002580000000000257000000000025811356000000000028213400000000007130976700000000000000009999123100000010000000000000BRCVCBACNOR1118
012026020402ENEV3       010ENEVA       ON      NM   R$  000000000209200000000021200000000002051000000000207700000000020810000000002080000000000208123432000000000010100000000000020981815600000000000000009999123100000010000000000000BRENEVACNOR8107
012026020402AZEV3       010AZEVEDO     ON           R$  000000000002800000000000290000000000026000000000002700000000000270000000000027000000000002800239000000000001027500000000000028189100000000000000009999123100000010000000000000BRAZEVACNOR0123
012026020402AZEV4       010AZEVEDO     PN           R$  000000000002000000000000210000000000019000000000001900000000000190000000000019000000000002000638000000000007423500000000000147188800000000000000009999123100000010000000000000BRAZEVACNPR7123
012026020402AZTE3       010AZT ENERGIA ON           R$  000000000003400000000000340000000000031000000000003200000000000320000000000032000000000003300461000000000002078300000000000067334200000000000000009999123100000010000000000000BRAZTEACNOR4101
012026020402AZZA3       010AZZAS 2154  ON      NM   R$  000000000262000000000026360000000002521000000000256200000000025450000000002545000000000255308976000000000002114300000000005417292800000000000000009999123100000010000000000000BRAZZAACNOR9104
012026020402BEES3       010BANESTES    ON  EJ       R$  000000000082600000000008340000000000820000000000082600000000008280000000000826000000000082800082000000000000017100000000000014126600000000000000009999123100000010000000000000BRBEESACNOR9415
012026020402BEES4       010BANESTES    PN  EJ       R$  000000000084300000000008500000000000831000000000083600000000008350000000000833000000000083500017000000000000002500000000000002091400000000000000009999123100000010000000000000BRBEESACNPR6340
012026020402BGIP4       010BANESE      PN           R$  000000000358000000000035800000000003511000000000353200000000035150000000003510000000000369900011000000000000001300000000000004592700000000000000009999123100000010000000000000BRBGIPACNPR8215
012026020402BHIA3       010CASAS BAHIA ON      NM   R$  000000000031600000000003190000000000303000000000030800000000003040000000000304000000000030603382000000000003728600000000001152094000000000000000009999123100000010000000000000BRBHIAACNOR1104
012026020402BPAC11      010BTGP BANCO  UNT     N2   R$  000000000607500000000060930000000005761000000000585100000000058200000000005819000000000582349271000000000014129300000000082684033800000000000000009999123100000010000000000000BRBPACUNT006128
012026020402BPAC3       010BTGP BANCO  ON      N2   R$  000000000439800000000043980000000004160000000000423900000000042000000000004160000000000426000055000000000000006100000000000025863400000000000000009999123100000010000000000000BRBPACACNOR7139
012026020402BPAC5       010BTGP BANCO  PNA     N2   R$  000000000114500000000011450000000001084000000000111100000000011000000000001087000000000110000089000000000000017200000000000019120400000000000000009999123100000010000000000000BRBPACACNPA0139
012026020402CAMB3       010CAMBUCI     ON           R$  000000000094000000000009490000000000915000000000092600000000009150000000000915000000000092000172000000000000064500000000000059733100000000000000009999123100000010000000000000BRCAMBACNOR4136
012026020402CAML3       010CAMIL       ON      NM   R$  000000000069300000000006930000000000678000000000068300000000006840000000000680000000000068402669000000000001211200000000000827936700000000000000009999123100000010000000000000BRCAMLACNOR3134
012026020402CASH3       010MELIUZ      ON      NM   R$  000000000037200000000003750000000000355000000000036100000000003570000000000356000000000035904148000000000002881900000000001041215200000000000000009999123100000010000000000000BRCASHACNOR8107
012026020402CBAV3       010CBA         ON      NM   R$  000000000101900000000010290000000001017000000000102200000000010220000000001018000000000102210950000000000012955000000000013247852300000000000000009999123100000010000000000000BRCBAVACNOR5104
012026020402CBEE3       010AMPLA ENERG ON           R$  000000000100000000000010000000000001000000000000100000000000010000000000001000000000000106000001000000000000000100000000000000100000000000000000009999123100000010000000000000BRCBEEACNOR3163
012026020402CEAB3       010CEA MODAS   ON      NM   R$  000000000123600000000012850000000001216000000000125100000000012470000000001244000000000124720950000000000012032100000000015055145600000000000000009999123100000010000000000000BRCEABACNOR1105
012026020402CSNA3       010SID NACIONALON           R$  000000000102500000000010430000000001003000000000102000000000010230000000001021000000000102513304000000000008461000000000008637731800000000000000009999123100000010000000000000BRCSNAACNOR6263
012026020402CRPG5       010CRISTAL     PNA          R$  000000000196200000000019620000000001901000000000191600000000019010000000001885000000000192400006000000000000000600000000000001149700000000000000009999123100000010000000000000BRCRPGACNPA3119
012026020402CRPG6       010CRISTAL     PNB          R$  000000000186200000000018710000000001862000000000186300000000018700000000001805000000000187000004000000000000001400000000000002608500000000000000009999123100000010000000000000BRCRPGACNPB1119
012026020402CSAN3       010COSAN       ON      NM   R$  000000000059500000000006070000000000579000000000058900000000005820000000000581000000000058229986000000000039477700000000023258372000000000000000009999123100000010000000000000BRCSANACNOR6128
012026020402ASAI3       010ASSAI       ON      NM   R$  000000000087800000000008960000000000848000000000086000000000008590000000000859000000000086017960000000000019776700000000017020621400000000000000009999123100000010000000000000BRASAIACNOR0109
012026020402ATED3       010ATOM EDUC   ON           R$  000000000020900000000002110000000000208000000000020900000000002110000000000211000000000021200040000000000000011100000000000002329500000000000000009999123100000010000000000000BRATEDACNOR1100
012026020402AUAU3       010PETZCOBASI  ON      NM   R$  000000000033700000000003390000000000319000000000032600000000003250000000000325000000000032604261000000000005886000000000001922099300000000000000009999123100000010000000000000BRAUAUACNOR1100
012026020402BBSE3       010BBSEGURIDADEON      NM   R$  000000000381100000000038120000000003710000000000374100000000037150000000003715000000000372116791000000000005303200000000019841483000000000000000009999123100000010000000000000BRBBSEACNOR5127
012026020402BEEF3       010MINERVA     ON      NM   R$  000000000062800000000006300000000000603000000000061000000000006040000000000604000000000060609860000000000011466400000000006997859600000000000000009999123100000010000000000000BRBEEFACNOR6120
012026020402BRSR3       010BANRISUL    ON      N1   R$  000000000192900000000019290000000001857000000000189200000000018890000000001889000000000190400059000000000000007000000000000013248400000000000000009999123100000010000000000000BRBRSRACNOR3197
012026020402BRSR5       010BANRISUL    PNA     N1   R$  000000000194700000000019480000000001947000000000194700000000019480000000001700000000000198500002000000000000000600000000000001168500000000000000009999123100000010000000000000BRBRSRACNPA6201
012026020402BRSR6       010BANRISUL    PNB     N1   R$  000000000186100000000018820000000001821000000000184100000000018490000000001849000000000185005460000000000001805100000000003323559100000000000000009999123100000010000000000000BRBRSRACNPB4200
012026020402BRST3       010BRISANET    ON      NM   R$  000000000033500000000003360000000000319000000000032400000000003190000000000319000000000032001187000000000000469900000000000152472400000000000000009999123100000010000000000000BRBRSTACNOR9102
012026020402CPFE3       010CPFL ENERGIAON      NM   R$  000000000510800000000051110000000004990000000000502800000000050310000000005020000000000503907211000000000001297700000000006525949700000000000000009999123100000010000000000000BRCPFEACNOR0138
012026020402CPLE3       010COPEL       ON      NM   R$  000000000135500000000013550000000001301000000000131600000000013170000000001314000000000131821147000000000013696900000000018025691400000000000000009999123100000010000000000000BRCPLEACNOR8153
012026020402DMVF3       010D1000VFARMA ON      NM   R$  000000000068000000000006800000000000665000000000067200000000006750000000000665000000000067500245000000000000040800000000000027436400000000000000009999123100000010000000000000BRDMVFACNOR9100
012026020402DOHL4       010DOHLER      PN           R$  000000000038500000000003880000000000385000000000038600000000003860000000000385000000000039200010000000000000003200000000000001237200000000000000009999123100000010000000000000BRDOHLACNPR9067
012026020402BSLI3       010BRB BANCO   ON           R$  000000000051400000000005190000000000507000000000051300000000005070000000000506000000000050700058000000000000022100000000000011350900000000000000009999123100000010000000000000BRBSLIACNOR5198
012026020402BSLI4       010BRB BANCO   PN           R$  000000000055300000000005550000000000550000000000055200000000005500000000000543000000000056400020000000000000006200000000000003423300000000000000009999123100000010000000000000BRBSLIACNPR2198
012026020402DOTZ3       010DOTZ SA     ON      NM   R$  000000000036300000000003680000000000352000000000036000000000003530000000000352000000000035400053000000000000012100000000000004363500000000000000009999123100000010000000000000BRDOTZACNOR7101
012026020402DXCO3       010DEXCO       ON      NM   R$  000000000057500000000005780000000000555000000000056100000000005580000000000558000000000055903496000000000002091700000000001174964500000000000000009999123100000010000000000000BRDXCOACNOR8108
012026020402EALT3       010ACO ALTONA  ON           R$  000000000142000000000014290000000001400000000000141300000000014120000000001400000000000143000013000000000000002900000000000004099800000000000000009999123100000010000000000000BREALTACNOR4140
012026020402EALT4       010ACO ALTONA  PN           R$  000000000147400000000014850000000001443000000000146400000000014430000000001442000000000146000091000000000000021100000000000030898500000000000000009999123100000010000000000000BREALTACNPR1140
012026020402ECOR3       010ECORODOVIAS ON      NM   R$  000000000112200000000011260000000001062000000000108700000000010740000000001070000000000107512339000000000006848500000000007446833000000000000000009999123100000010000000000000BRECORACNOR8122
012026020402EGIE3       010ENGIE BRASILON      NM   R$  000000000336400000000033960000000003267000000000330800000000033250000000003325000000000332710545000000000001639200000000005423246000000000000000009999123100000010000000000000BREGIEACNOR9132
012026020402FRAS3       010FRAS-LE     ON      N1   R$  000000000244200000000024470000000002373000000000239900000000023850000000002385000000000239601419000000000000293100000000000703293000000000000000009999123100000010000000000000BRFRASACNOR0163
012026020402CSED3       010CRUZEIRO EDUON      NM   R$  000000000068200000000006900000000000654000000000065900000000006540000000000654000000000065802623000000000001067600000000000704227800000000000000009999123100000010000000000000BRCSEDACNOR9107
012026020402CSMG3       010COPASA      ON      NM   R$  000000000544500000000054880000000005260000000000533000000000053470000000005324000000000535014954000000000002841900000000015148586700000000000000009999123100000010000000000000BRCSMGACNOR5183
012026020402AURE3       010AUREN       ON      NM   R$  000000000111200000000011220000000001086000000000109800000000010960000000001096000000000109809618000000000003252100000000003573032200000000000000009999123100000010000000000000BRAUREACNOR9105
012026020402AVLL3       010ALPHAVILLE  ON      NM   R$  000000000008700000000000870000000000083000000000008500000000000860000000000083000000000008700014000000000000009300000000000000794800000000000000009999123100000010000000000000BRAVLLACNOR5103
012026020402AXIA3       010AXIA ENERGIAON      N1   R$  000000000565700000000057230000000005445000000000553200000000054980000000005493000000000550037049000000000011178400000000061839890700000000000000009999123100000010000000000000BRAXIAACNOR0102
012026020402AXIA6       010AXIA ENERGIAPNB     N1   R$  000000000601600000000060700000000005796000000000587800000000058510000000005845000000000585307942000000000001397500000000008215791200000000000000009999123100000010000000000000BRAXIAACNPB1103
012026020402AXIA7       010AXIA ENERGIAPNC     N1   R$  000000000549100000000055520000000005268000000000535600000000053080000000005305000000000533410712000000000004919800000000026353009300000000000000009999123100000010000000000000BRAXIAACNPC9100
012026020402BRBI11      010BR PARTNERS UNT     N2   R$  000000000212500000000021390000000002030000000000206600000000020550000000002030000000000205503232000000000000429900000000000888444700000000000000009999123100000010000000000000BRBRBICDAM10116
012026020402BRKM3       010BRASKEM     ON      N1   R$  000000000090400000000009450000000000891000000000091600000000009030000000000902000000000091400135000000000000029900000000000027394200000000000000009999123100000010000000000000BRBRKMACNOR1119
012026020402BRKM5       010BRASKEM     PNA ATZ N1   R$  000000000092200000000009620000000000912000000000094200000000009430000000000941000000000094306721000000000003808100000000003589037300000000000000009999123100000010000000000000BRBRKMACNPA4123
012026020402BRKM6       010BRASKEM     PNB     N1   R$  000000000081000000000008100000000000810000000000081000000000008100000000000652000000000092900001000000000000000100000000000000081000000000000000009999123100000010000000000000BRBRKMACNPB2114
012026020402GEPA3       010GER PARANAP ON           R$  000000000339700000000034000000000003397000000000339800000000034000000000003290000000000339900006000000000000000600000000000002039100000000000000009999123100000010000000000000BRGEPAACNOR2158
012026020402GEPA4       010GER PARANAP PN           R$  000000000350000000000035000000000003467000000000349300000000034980000000003466000000000349800009000000000000001500000000000005239500000000000000009999123100000010000000000000BRGEPAACNPR9165
012026020402GFSA3       010GAFISA      ON      NM   R$  000000000039700000000004020000000000391000000000039400000000003910000000000391000000000039200405000000000000255900000000000100993300000000000000009999123100000010000000000000BRGFSAACNOR3127
012026020402GGBR3       010GERDAU      ON      N1   R$  000000000194100000000019630000000001889000000000194600000000019170000000001910000000000192100771000000000000141900000000000276214500000000000000009999123100000010000000000000BRGGBRACNOR1198
012026020402GGBR4       010GERDAU      PN      N1   R$  000000000228400000000023020000000002218000000000224800000000022400000000002238000000000224223636000000000014668500000000032983475400000000000000009999123100000010000000000000BRGGBRACNPR8198
012026020402EUCA3       010EUCATEX     ON      N1   R$  000000000210000000000021390000000002060000000000207300000000020600000000002060000000000209900006000000000000001400000000000002902800000000000000009999123100000010000000000000BREUCAACNOR1159
012026020402EUCA4       010EUCATEX     PN      N1   R$  000000000200500000000020520000000001971000000000201100000000020520000000002052000000000205600403000000000000054200000000000109032200000000000000009999123100000010000000000000BREUCAACNPR8046
012026020402EVEN3       010EVEN        ON      NM   R$  000000000080400000000008060000000000765000000000077600000000007690000000000768000000000077402272000000000000742200000000000576497900000000000000009999123100000010000000000000BREVENACNOR8121
012026020402EZTC3       010EZTEC       ON      NM   R$  000000000155000000000015670000000001516000000000154200000000015440000000001533000000000154505516000000000002019200000000003114171400000000000000009999123100000010000000000000BREZTCACNOR0132
012026020402TGMA3       010TEGMA       ON      NM   R$  000000000399300000000039930000000003870000000000390200000000039010000000003901000000000391501349000000000000299200000000001167584000000000000000009999123100000010000000000000BRTGMAACNOR7150
012026020402VITT3       010VITTIA      ON      NM   R$  000000000044700000000004470000000000435000000000044000000000004390000000000436000000000043900819000000000000134900000000000059410800000000000000009999123100000010000000000000BRVITTACNOR4113
012026020402VIVA3       010VIVARA S.A. ON      NM   R$  000000000288100000000028870000000002816000000000284800000000028600000000002857000000000286314308000000000004882100000000013905950400000000000000009999123100000010000000000000BRVIVAACNOR0109
012026020402VIVR3       010VIVER       ON      NM   R$  000000000006200000000000640000000000060000000000006100000000000630000000000060000000000006300129000000000000165000000000000010142900000000000000009999123100000010000000000000BRVIVRACNOR4125
012026020402VIVT3       010TELEF BRASILON           R$  000000000383700000000038420000000003775000000000380800000000038130000000003813000000000381415657000000000005965200000000022720148000000000000000009999123100000010000000000000BRVIVTACNOR0199
012026020402VLID3       010VALID       ON      NM   R$  000000000223000000000022300000000002145000000000216400000000021570000000002157000000000216101748000000000000258200000000000558847700000000000000009999123100000010000000000000BRVLIDACNOR5148
012026020402VBBR3       010VIBRA       ON      NM   R$  000000000301500000000030420000000002917000000000296900000000029790000000002969000000000297922733000000000007072300000000020999552900000000000000009999123100000010000000000000BRVBBRACNOR1114
012026020402AERI3       010AERIS       ON      NM   R$  000000000031200000000003150000000000308000000000031000000000003090000000000309000000000031000130000000000000038900000000000012074100000000000000009999123100000010000000000000BRAERIACNOR4102
012026020402AFLT3       010AFLUENTE T  ON           R$  000000000074000000000007400000000000740000000000074000000000007400000000000728000000000076800002000000000000000200000000000000148000000000000000009999123100000010000000000000BRAFLTACNOR1126
012026020402AGRO3       010BRASILAGRO  ON      NM   R$  000000000214500000000021570000000002023000000000205500000000020240000000002024000000000203502416000000000000363900000000000747884000000000000000009999123100000010000000000000BRAGROACNOR7116
012026020402SLCE3       010SLC AGRICOLAON      NM   R$  000000000161400000000016140000000001564000000000157900000000015790000000001576000000000158107519000000000002356700000000003721490100000000000000009999123100000010000000000000BRSLCEACNOR2128
012026020402B3SA3       010B3          ON      NM   R$  000000000163200000000016440000000001565000000000158800000000015770000000001576000000000157744094000000000035678700000000056674963500000000000000009999123100000010000000000000BRB3SAACNOR6140
012026020402SCAR3       010SAO CARLOS  ON      NM   R$  000000000156800000000015680000000001502000000000152200000000015290000000001518000000000152900141000000000000024900000000000037921900000000000000009999123100000010000000000000BRSCARACNOR7133
012026020402SEER3       010SER EDUCA   ON      NM   R$  000000000123000000000012420000000001181000000000119800000000011880000000001183000000000118906485000000000001980400000000002373588000000000000000009999123100000010000000000000BRSEERACNOR5120
012026020402SEQL3       010SEQUOIA LOG ON      NM   R$  000000000012600000000001310000000000120000000000012300000000001220000000000122000000000012300570000000000000272000000000000033646600000000000000009999123100000010000000000000BRSEQLACNOR2108
012026020402SHOW3       010TIME FOR FUNON      NM   R$  000000000056700000000005850000000000557000000000056900000000005630000000000563000000000057300279000000000000050500000000000028741100000000000000009999123100000010000000000000BRSHOWACNOR7106
012026020402SHUL4       010SCHULZ      PN           R$  000000000054600000000005460000000000529000000000053300000000005320000000000530000000000053301118000000000000594000000000000316840900000000000000009999123100000010000000000000BRSHULACNPR4163
012026020402SIMH3       010SIMPAR      ON      NM   R$  000000000067200000000006760000000000642000000000065500000000006580000000000656000000000066005862000000000004588600000000003006161800000000000000009999123100000010000000000000BRSIMHACNOR0109
012026020402PLAS3       010PLASCAR PARTON           R$  000000000047300000000004730000000000459000000000046800000000004590000000000459000000000048500003000000000000000400000000000000187400000000000000009999123100000010000000000000BRPLASACNOR2106
012026020402PLPL3       010PLANOEPLANO ON      NM   R$  000000000152500000000015550000000001486000000000150400000000015250000000001513000000000152715203000000000004515100000000006794253700000000000000009999123100000010000000000000BRPLPLACNOR5106
012026020402PNVL3       010DIMED       ON      NM   R$  000000000141000000000014170000000001363000000000138400000000013890000000001389000000000139905989000000000001020400000000001413001700000000000000009999123100000010000000000000BRPNVLACNOR9213
012026020402POMO3       010MARCOPOLO   ON      N2   R$  000000000061400000000006170000000000582000000000059100000000005850000000000585000000000058703145000000000002106400000000001245704300000000000000009999123100000010000000000000BRPOMOACNOR0105
012026020402POMO4       010MARCOPOLO   PN      N2   R$  000000000063000000000006410000000000616000000000062500000000006220000000000622000000000062422829000000000013167400000000008234469900000000000000009999123100000010000000000000BRPOMOACNPR7105
012026020402TIMS3       010TIM         ON      NM   R$  000000000250100000000025190000000002463000000000248100000000024790000000002473000000000248017398000000000005598700000000013895341600000000000000009999123100000010000000000000BRTIMSACNOR5129
012026020402VALE3       010VALE        ON      NM   R$  000000000885100000000089590000000008755000000000886600000000089430000000008942000000000894469643000000000051744400000000458771482300000000000000009999123100000010000000000000BRVALEACNOR0218
012026020402VAMO3       010VAMOS       ON      NM   R$  000000000043300000000004340000000000407000000000041700000000004140000000000413000000000041415233000000000022336200000000009323358600000000000000009999123100000010000000000000BRVAMOACNOR7109
012026020402TOKY3       010GRUPO TOKY  ON      NM   R$  000000000006600000000000670000000000061000000000006200000000000610000000000061000000000006200156000000000000425500000000000026772400000000000000009999123100000010000000000000BRTOKYACNOR5101
012026020402TOTS3       010TOTVS       ON      NM   R$  000000000433800000000043380000000003767000000000392300000000037980000000003794000000000379858154000000000017659200000000069281438600000000000000009999123100000010000000000000BRTOTSACNOR8150
012026020402YDUQ3       010YDUQS PART  ON      NM   R$  000000000138800000000014070000000001320000000000134500000000013370000000001337000000000133912353000000000004871100000000006555060700000000000000009999123100000010000000000000BRYDUQACNOR3108
012026020402VSTE3       010VESTE       ON      NM   R$  000000000036900000000003690000000000362000000000036400000000003640000000000363000000000036400041000000000000043100000000000015696000000000000000009999123100000010000000000000BRVSTEACNOR5104
012026020402VTRU3       010VITRUEDUCA  ON      NM   R$  000000000166800000000016740000000001623000000000164900000000016660000000001633000000000166602930000000000000459600000000000757880900000000000000009999123100000010000000000000BRVTRUACNOR3101
012026020402VULC3       010VULCABRAS   ON      NM   R$  000000000181000000000018100000000001769000000000178600000000017940000000001785000000000179408223000000000002646400000000004726553600000000000000009999123100000010000000000000BRVULCACNOR2181
012026020402VVEO3       010VIVEO       ON      NM   R$  000000000014300000000001450000000000138000000000014100000000001400000000000140000000000014100593000000000000886400000000000125656000000000000000009999123100000010000000000000BRVVEOACNOR0104
012026020402USIM3       010USIMINAS    ON      N1   R$  000000000065800000000006620000000000635000000000064500000000006520000000000645000000000065202081000000000000881600000000000569223300000000000000009999123100000010000000000000BRUSIMACNOR3167
012026020402USIM5       010USIMINAS    PNA     N1   R$  000000000065900000000006630000000000641000000000065000000000006520000000000651000000000065210201000000000010585300000000006887100700000000000000009999123100000010000000000000BRUSIMACNPA6172
012026020402WEST3       010WESTWING    ON      NM   R$  000000000060000000000006090000000000584000000000059900000000005880000000000583000000000060500022000000000000010200000000000006111400000000000000009999123100000010000000000000BRWESTACNOR3101
012026020402WHRL3       010WHIRLPOOL   ON           R$  000000000044900000000004490000000000436000000000043900000000004370000000000435000000000043700021000000000000004000000000000001758700000000000000009999123100000010000000000000BRWHRLACNOR5135
012026020402WDCN3       010WDC NETWORKSON      NM   R$  000000000027000000000002700000000000262000000000026300000000002690000000000263000000000026900058000000000000023000000000000006071700000000000000009999123100000010000000000000BRWDCNACNOR2100
012026020402WEGE3       010WEG         ON      NM   R$  000000000534400000000053450000000005119000000000518800000000051400000000005138000000000514228553000000000008893000000000046145159800000000000000009999123100000010000000000000BRWEGEACNOR0234
012026020402WHRL4       010WHIRLPOOL   PN           R$  000000000047000000000004700000000000461000000000046700000000004620000000000464000000000046800031000000000000007400000000000003456500000000000000009999123100000010000000000000BRWHRLACNPR2135
012026020402WIZC3       010WIZ CO      ON      NM   R$  000000000102300000000010230000000000987000000000099400000000009910000000000991000000000100002220000000000000667600000000000664040100000000000000009999123100000010000000000000BRWIZCACNOR5104
012026020402WLMM4       010WLM IND COM PN           R$  000000000228000000000024090000000002280000000000233700000000024090000000002123000000000240900014000000000000002400000000000005608800000000000000009999123100000010000000000000BRWLMMACNPR3125
012026020402TASA3       010TAURUS ARMASON      N2   R$  000000000055200000000005620000000000541000000000055100000000005550000000000545000000000055500153000000000000117400000000000064705300000000000000009999123100000010000000000000BRTASAACNOR7106
012026020402TASA4       010TAURUS ARMASPN      N2   R$  000000000055000000000005520000000000524000000000053600000000005320000000000531000000000053201414000000000000491700000000000263878500000000000000009999123100000010000000000000BRTASAACNPR4106
012026020402TCSA3       010TECNISA     ON      NM   R$  000000000016400000000001640000000000156000000000015800000000001590000000000157000000000015900147000000000000082500000000000013093400000000000000009999123100000010000000000000BRTCSAACNOR3112
012026020402TECN3       010TECHNOS     ON      NM   R$  000000000080200000000008400000000000791000000000080800000000008120000000000812000000000081600333000000000000066800000000000054012600000000000000009999123100000010000000000000BRTECNACNOR6111
012026020402TELB4       010TELEBRAS    PN           R$  000000000081600000000008160000000000785000000000078800000000008080000000000784000000000080800011000000000000001800000000000001419800000000000000009999123100000010000000000000BRTELBACNPR9142
012026020402TEND3       010TENDA       ON      NM   R$  000000000287800000000028880000000002757000000000280400000000028220000000002817000000000282410035000000000002498200000000007005445400000000000000009999123100000010000000000000BRTENDACNOR4114
012026020402TFCO4       010TRACK FIELD PN      N2   R$  000000000162700000000016400000000001546000000000158000000000015780000000001569000000000157804407000000000001254800000000001983593800000000000000009999123100000010000000000000BRTFCOACNPR8121
012026020402UCAS3       010UNICASA     ON      NM   R$  000000000013900000000001430000000000138000000000014000000000001420000000000139000000000014200076000000000000078700000000000011053700000000000000009999123100000010000000000000BRUCASACNOR1114
012026020402UGPA3       010ULTRAPAR    ON      NM   R$  000000000259200000000026390000000002557000000000259300000000025990000000002599000000000260023995000000000007035100000000018242028300000000000000009999123100000010000000000000BRUGPAACNOR8159
012026020402ALPA3       010ALPARGATAS  ON      N1   R$  000000000120600000000012100000000001145000000000118400000000012100000000001159000000000121000079000000000000080300000000000095103700000000000000009999123100000010000000000000BRALPAACNOR0234
012026020402ALPA4       010ALPARGATAS  PN      N1   R$  000000000147800000000014810000000001441000000000145800000000014590000000001450000000000145906040000000000001532900000000002235624100000000000000009999123100000010000000000000BRALPAACNPR7235
012026020402ALPK3       010ESTAPAR     ON      NM   R$  000000000046800000000004720000000000436000000000045200000000004570000000000450000000000045700694000000000000478200000000000216273800000000000000009999123100000010000000000000BRALPKACNOR9101
012026020402ALUP11      010ALUPAR      UNT     N2   R$  000000000339600000000034000000000003338000000000336900000000033850000000003368000000000338704437000000000000886000000000002985118500000000000000009999123100000010000000000000BRALUPCDAM15126
012026020402ALUP3       010ALUPAR      ON      N2   R$  000000000121000000000012480000000001210000000000122300000000012390000000001214000000000124000047000000000000009500000000000011626800000000000000009999123100000010000000000000BRALUPACNOR8126
012026020402ALUP4       010ALUPAR      PN      N2   R$  000000000107000000000010760000000001065000000000106900000000010700000000001066000000000107200050000000000000008300000000000008878300000000000000009999123100000010000000000000BRALUPACNPR5126
012026020402AMAR3       010LOJAS MARISAON      NM   R$  000000000009700000000000980000000000095000000000009600000000000960000000000095000000000009600322000000000000235000000000000022666300000000000000009999123100000010000000000000BRAMARACNOR4115
012026020402AMOB3       010AUTOMOB     ON      NM   R$  000000000140000000000014000000000001324000000000134800000000013390000000001337000000000135400198000000000000030700000000000041412700000000000000009999123100000010000000000000BRAMOBACNOR9101
012026020402HAGA3       010HAGA S/A    ON           R$  000000000018300000000002050000000000183000000000019700000000001870000000000187000000000020300010000000000000002700000000000000532800000000000000009999123100000010000000000000BRHAGAACNOR7103
012026020402HAGA4       010HAGA S/A    PN           R$  000000000012100000000001210000000000115000000000011500000000001160000000000115000000000012000009000000000000010200000000000001179000000000000000009999123100000010000000000000BRHAGAACNPR4103
012026020402HAPV3       010HAPVIDA     ON      NM   R$  000000000127800000000012820000000001226000000000124500000000012460000000001245000000000124618082000000000009454300000000011773027700000000000000009999123100000010000000000000BRHAPVACNOR4119
012026020402ANIM3       010ANIMA       ON      NM   R$  000000000048000000000004860000000000468000000000047500000000004780000000000476000000000047911729000000000008056000000000003833631200000000000000009999123100000010000000000000BRANIMACNOR6110
012026020402ARML3       010ARMAC       ON      NM   R$  000000000048000000000004800000000000451000000000045800000000004570000000000451000000000045703455000000000001638400000000000751107600000000000000009999123100000010000000000000BRARMLACNOR1117
012026020402ARND3       010ARANDU      ON      NM   R$  000000000008000000000000800000000000080000000000008000000000000800000000000079000000000008000002000000000000001500000000000000120000000000000000009999123100000010000000000000BRARNDACNOR6100
012026020402BALM4       010BAUMER      PN           R$  000000000201400000000020140000000001975000000000199500000000019750000000001872000000000197500006000000000000001400000000000002793800000000000000009999123100000010000000000000BRBALMACNPR2060
012026020402BAUH4       010EXCELSIOR   PN           R$  000000000930000000000093000000000009000000000000926500000000092990000000005001000000000930000016000000000000004600000000000042621000000000000000009999123100000010000000000000BRBAUHACNPR3119
012026020402BAZA3       010AMAZONIA    ON           R$  000000000857900000000085990000000008430000000000847500000000084400000000008433000000000853900025000000000000002900000000000024579200000000000000009999123100000010000000000000BRBAZAACNOR0180
012026020402BBAS3       010BRASIL      ON      NM   R$  000000000253200000000025420000000002487000000000251000000000025100000000002504000000000251038182000000000026372500000000066212413000000000000000009999123100000010000000000000BRBBASACNOR3334
012026020402BRAV3       010BRAVA       ON      NM   R$  000000000182700000000018310000000001795000000000180800000000018050000000001804000000000180513792000000000005281900000000009551576500000000000000009999123100000010000000000000BRBRAVACNOR3103
012026020402DASA3       010DASA        ON      NM   R$  000000000043000000000004310000000000406000000000041400000000004150000000000415000000000041702381000000000001149000000000000476485700000000000000009999123100000010000000000000BRDASAACNOR1123
012026020402DESK3       010DESKTOP     ON      NM   R$  000000000146500000000014650000000001392000000000143000000000014550000000001430000000000146004066000000000001306800000000001869307800000000000000009999123100000010000000000000BRDESKACNOR2106
012026020402DEXP3       010DEXXOS PAR  ON      N1   R$  000000000074500000000007480000000000726000000000073500000000007300000000000730000000000073700594000000000000126900000000000093275200000000000000009999123100000010000000000000BRDEXPACNOR1109
012026020402DEXP4       010DEXXOS PAR  PN      N1   R$  000000000075300000000007530000000000735000000000073600000000007360000000000736000000000075900015000000000000006300000000000004642700000000000000009999123100000010000000000000BRDEXPACNPR8109
012026020402DIRR3       010DIRECIONAL  ON      NM   R$  000000000146900000000015000000000001416000000000145300000000014440000000001435000000000144419218000000000008783800000000012764589300000000000000009999123100000010000000000000BRDIRRACNOR0123
012026020402FESA3       010FERBASA     ON      N1   R$  000000000120100000000012010000000001200000000000120000000000012000000000001183000000000121700003000000000000000700000000000000840400000000000000009999123100000010000000000000BRFESAACNOR8194
012026020402CXSE3       010CAIXA SEGURION      NM   R$  000000000181900000000018300000000001777000000000179400000000017860000000001785000000000179211773000000000003147100000000005646326300000000000000009999123100000010000000000000BRCXSEACNOR7114
012026020402ENGI11      010ENERGISA    UNT     N2   R$  000000000515900000000051590000000004962000000000501700000000050080000000005006000000000502312334000000000002409400000000012089971400000000000000009999123100000010000000000000BRENGICDAM16140
012026020402ENGI3       010ENERGISA    ON      N2   R$  000000000126800000000012780000000001223000000000124500000000012290000000001220000000000123500043000000000000013600000000000016933600000000000000009999123100000010000000000000BRENGIACNOR0150
012026020402ENGI4       010ENERGISA    PN      N2   R$  000000000097300000000009800000000000926000000000094500000000009300000000000925000000000095300067000000000000010200000000000009646700000000000000009999123100000010000000000000BRENGIACNPR7146
012026020402ENJU3       010ENJOEI      ON      NM   R$  000000000010800000000001080000000000106000000000010600000000001080000000000106000000000010800366000000000000247800000000000026420300000000000000009999123100000010000000000000BRENJUACNOR9100
012026020402ENMT3       010ENERGISA MT ON           R$  000000000513900000000051500000000005139000000000514300000000051500000000000000000000000530000004000000000000000500000000000002571600000000000000009999123100000010000000000000BRENMTACNOR5125
012026020402EPAR3       010EMBPAR S/A  ON           R$  000000000037300000000003730000000000371000000000037200000000003710000000000371000000000037300026000000000000007800000000000002903500000000000000009999123100000010000000000000BREPARACNOR9107
012026020402EQPA3       010EQTL PARA   ON           R$  000000000064400000000006440000000000632000000000063800000000006360000000000636000000000064300016000000000000002200000000000001404100000000000000009999123100000010000000000000BREQPAACNOR1112
012026020402EQPA5       010EQTL PARA   PNA          R$  000000000110000000000011000000000001100000000000110000000000011000000000000609000000000110000001000000000000000100000000000000110000000000000000009999123100000010000000000000BREQPAACNPA4112
012026020402FESA4       010FERBASA     PN      N1   R$  000000000086900000000008690000000000820000000000083900000000008340000000000834000000000083503683000000000001281200000000001075700400000000000000009999123100000010000000000000BRFESAACNPR5090
012026020402FHER3       010FER HERINGERON      NM   R$  000000000046500000000004650000000000447000000000045500000000004620000000000449000000000046400024000000000000006500000000000002961900000000000000009999123100000010000000000000BRFHERACNOR5103
012026020402FICT3       010FICTORALIMENON           R$  000000000007600000000000780000000000070000000000007100000000000700000000000069000000000007000181000000000000211100000000000015078200000000000000009999123100000010000000000000BRFICTACNOR3101
012026020402FIQE3       010UNIFIQUE    ON      NM   R$  000000000051800000000005180000000000498000000000050400000000004980000000000498000000000050301654000000000000570300000000000287493800000000000000009999123100000010000000000000BRFIQEACNOR5112
012026020402FLRY3       010FLEURY      ON      NM   R$  000000000169500000000016960000000001633000000000165300000000016480000000001647000000000165008123000000000004454900000000007366544700000000000000009999123100000010000000000000BRFLRYACNOR5143
012026020402ALLD3       010ALLIED      ON  EJ  NM   R$  000000000080200000000008020000000000777000000000078400000000007820000000000782000000000078301667000000000000578500000000000453728400000000000000009999123100000010000000000000BRALLDACNOR3110
012026020402ALOS3       010ALLOS       ON      NM   R$  000000000315500000000031570000000003057000000000309400000000031010000000003100000000000310116310000000000005376600000000016636298700000000000000009999123100000010000000000000BRALOSACNOR5118
012026020402CYRE3       010CYRELA REALTON      NM   R$  000000000318400000000031950000000003015000000000309300000000030510000000003050000000000305822811000000000006569800000000020325018600000000000000009999123100000010000000000000BRCYREACNOR7143
012026020402CYRE4       010CYRELA REALTPN      NM   R$  000000000305200000000030670000000002854000000000292500000000029000000000002890000000000291504496000000000000870200000000002546062700000000000000009999123100000010000000000000BRCYREACNPR4114
012026020402ESPA3       010ESPACOLASER ON      NM   R$  000000000008700000000000880000000000084000000000008600000000000850000000000084000000000008500227000000000000575300000000000049493000000000000000009999123100000010000000000000BRESPAACNOR7105
012026020402ETER3       010ETERNIT     ON      NM   R$  000000000040100000000004030000000000397000000000040000000000004030000000000400000000000040300342000000000000257100000000000102846300000000000000009999123100000010000000000000BRETERACNOR3246
012026020402EQTL3       010EQUATORIAL  ON      NM   R$  000000000412800000000041280000000003986000000000402900000000040260000000004022000000000404023538000000000005604600000000022585729600000000000000009999123100000010000000000000BREQTLACNOR0135
012026020402ISAE3       010ISA ENERGIA ON  EJ  N1   R$  000000000343700000000034370000000003350000000000338600000000033510000000003350000000000339900031000000000000003700000000000012531800000000000000009999123100000010000000000000BRISAEACNOR2108
012026020402ISAE4       010ISA ENERGIA PN  EJ  N1   R$  000000000289700000000029230000000002829000000000285800000000028320000000002832000000000284506126000000000001505700000000004304424800000000000000009999123100000010000000000000BRISAEACNPR9108
012026020402ITSA3       010ITAUSA      ON      N1   R$  000000000139600000000013960000000001347000000000136200000000013560000000001355000000000136200853000000000000230000000000000313411800000000000000009999123100000010000000000000BRITSAACNOR0455
012026020402UNIP3       010UNIPAR      ON           R$  000000000621300000000062130000000006001000000000607800000000060010000000006000000000000606500056000000000000010000000000000060783300000000000000009999123100000010000000000000BRUNIPACNOR7210
012026020402UNIP5       010UNIPAR      PNA          R$  000000000625000000000062500000000006250000000000625000000000062500000000006151000000000643800001000000000000000100000000000000625000000000000000009999123100000010000000000000BRUNIPACNPA0212
012026020402UNIP6       010UNIPAR      PNB          R$  000000000657300000000065730000000006295000000000641800000000063370000000006337000000000640401602000000000000237200000000001522421000000000000000009999123100000010000000000000BRUNIPACNPB8210
012026020402TPIS3       010TRIUNFO PARTON      NM   R$  000000000055800000000005810000000000558000000000057200000000005750000000000555000000000057600216000000000000145400000000000083199400000000000000009999123100000010000000000000BRTPISACNOR8120
012026020402TRAD3       010TC          ON      NM   R$  000000000029900000000003080000000000299000000000030200000000003000000000000299000000000030000034000000000000011400000000000003450500000000000000009999123100000010000000000000BRTRADACNOR3102
012026020402TRIS3       010TRISUL      ON      NM   R$  000000000073800000000007380000000000687000000000069800000000006880000000000688000000000069401182000000000000684700000000000478173300000000000000009999123100000010000000000000BRTRISACNOR4122
012026020402TTEN3       0103TENTOS     ON      NM   R$  000000000168500000000016850000000001595000000000162200000000016150000000001615000000000162008423000000000001647400000000002672321700000000000000009999123100000010000000000000BRTTENACNOR0105
012026020402TUPY3       010TUPY        ON      NM   R$  000000000121600000000012210000000001183000000000119700000000011900000000001190000000000119304498000000000001217000000000001457820500000000000000009999123100000010000000000000BRTUPYACNOR1185
012026020402BRAP3       010BRADESPAR   ON      N1   R$  000000000215000000000021670000000002125000000000214800000000021530000000002153000000000217000399000000000000097700000000000209923300000000000000009999123100000010000000000000BRBRAPACNOR5153
012026020402BRAP4       010BRADESPAR   PN      N1   R$  000000000250200000000025400000000002474000000000251300000000025290000000002528000000000252911552000000000004704100000000011822148800000000000000009999123100000010000000000000BRBRAPACNPR2153
012026020402CMIN3       010CSNMINERACAOON      N2   R$  000000000061100000000006230000000000599000000000060800000000006070000000000606000000000060810516000000000005448200000000003314451300000000000000009999123100000010000000000000BRCMINACNOR2116
012026020402COCE5       010COELCE      PNA          R$  000000000318600000000031940000000003111000000000313300000000031500000000003147000000000318000386000000000000160300000000000502340200000000000000009999123100000010000000000000BRCOCEACNPA3150
012026020402COGN3       010COGNA ON    ON      NM   R$  000000000043000000000004330000000000398000000000041100000000004040000000000404000000000040539617000000000069997500000000028825054600000000000000009999123100000010000000000000BRCOGNACNOR2110
012026020402SAPR3       010SANEPAR     ON      N2   R$  000000000113200000000011340000000001055000000000108300000000010910000000001084000000000109201804000000000000462300000000000500737600000000000000009999123100000010000000000000BRSAPRACNOR9162
012026020402SAPR4       010SANEPAR     PN      N2   R$  000000000088600000000008930000000000865000000000087900000000008820000000000878000000000088203234000000000001940300000000001706859800000000000000009999123100000010000000000000BRSAPRACNPR6162
012026020402SBFG3       010GRUPO SBF   ON      NM   R$  000000000140300000000014150000000001336000000000136400000000013620000000001355000000000136307554000000000002945600000000004019911700000000000000009999123100000010000000000000BRSBFGACNOR1104
012026020402SBSP3       010SABESP      ON      NM   R$  000000001451300000000145970000000014200000000001436700000000143530000000014280000000001435514759000000000002642700000000037968956600000000000000009999123100000010000000000000BRSBSPACNOR5165
012026020402SYNE3       010SYN PROP TECON      NM   R$  000000000049800000000004980000000000487000000000049000000000004880000000000488000000000048901486000000000000543100000000000266615200000000000000009999123100000010000000000000BRSYNEACNOR2107
012026020402TAEE11      010TAESA       UNT     N2   R$  000000000422800000000042290000000004091000000000413500000000041480000000004125000000000414809005000000000002313000000000009566157100000000000000009999123100000010000000000000BRTAEECDAM10153
012026020402TAEE3       010TAESA       ON      N2   R$  000000000139400000000013950000000001349000000000136900000000013690000000001357000000000136900563000000000000092500000000000126648900000000000000009999123100000010000000000000BRTAEEACNOR9153
012026020402TAEE4       010TAESA       PN      N2   R$  000000000143000000000014300000000001376000000000139200000000013970000000001383000000000139700865000000000000184100000000000256371400000000000000009999123100000010000000000000BRTAEEACNPR6153
012026020402HBOR3       010HELBOR      ON      NM   R$  000000000027500000000002760000000000264000000000027000000000002690000000000267000000000027001300000000000000961300000000000259752500000000000000009999123100000010000000000000BRHBORACNOR3120
012026020402HBRE3       010HBR REALTY  ON      NM   R$  000000000036200000000003620000000000338000000000034400000000003420000000000342000000000034301528000000000001083400000000000373384600000000000000009999123100000010000000000000BRHBREACNOR4101
012026020402HBSA3       010HIDROVIAS   ON      NM   R$  000000000040000000000004010000000000390000000000039700000000003980000000000395000000000039902699000000000007475600000000002970008900000000000000009999123100000010000000000000BRHBSAACNOR0102
012026020402HBTS5       010HABITASUL   PNA          R$  000000000370000000000037000000000003700000000000370000000000037000000000003308000000000364000001000000000000000100000000000000370000000000000000009999123100000010000000000000BRHBTSACNPA3129
012026020402HYPE3       010HYPERA      ON      NM   R$  000000000242600000000024830000000002279000000000236800000000022990000000002296000000000230036440000000000011263300000000026680745100000000000000009999123100000010000000000000BRHYPEACNOR0149
012026020402LAND3       010TERRASANTAPAON      NM   R$  000000000081100000000008140000000000789000000000080000000000007910000000000791000000000081000163000000000000030000000000000024022100000000000000009999123100000010000000000000BRLANDACNOR9104
012026020402LAVV3       010LAVVI       ON  ED  NM   R$  000000000171000000000017100000000001655000000000167400000000016800000000001665000000000168003364000000000000821200000000001374807100000000000000009999123100000010000000000000BRLAVVACNOR4120
012026020402LEVE3       010METAL LEVE  ON      NM   R$  000000000351700000000035350000000003420000000000344200000000034320000000003432000000000343803322000000000000498700000000001716560800000000000000009999123100000010000000000000BRLEVEACNOR2202
012026020402MOVI3       010MOVIDA      ON      NM   R$  000000000129600000000013210000000001261000000000128900000000012850000000001284000000000128506788000000000002746200000000003541833300000000000000009999123100000010000000000000BRMOVIACNOR0126
012026020402MRVE3       010MRV         ON      NM   R$  000000000083600000000008450000000000806000000000081900000000008180000000000817000000000081909389000000000009042200000000007411310600000000000000009999123100000010000000000000BRMRVEACNOR2128
012026020402PTNT3       010PETTENATI   ON           R$  000000000083500000000008490000000000835000000000083900000000008400000000000838000000000084300009000000000000001700000000000001426500000000000000009999123100000010000000000000BRPTNTACNOR6044
012026020402PTNT4       010PETTENATI   PN           R$  000000000083000000000008390000000000824000000000083200000000008390000000000827000000000083900031000000000000016300000000000013569900000000000000009999123100000010000000000000BRPTNTACNPR3049
012026020402LJQQ3       010QUERO-QUERO ON      NM   R$  000000000025600000000002560000000000235000000000024400000000002470000000000244000000000024703391000000000003652500000000000892494100000000000000009999123100000010000000000000BRLJQQACNOR5105
012026020402LOGG3       010LOG COM PROPON      NM   R$  000000000284200000000028650000000002736000000000278500000000027750000000002768000000000277702513000000000000349400000000000973093000000000000000009999123100000010000000000000BRLOGGACNOR7112
012026020402LOGN3       010LOG-IN      ON      NM   R$  000000000323600000000032780000000003193000000000321500000000032430000000003207000000000324600092000000000000029500000000000094853800000000000000009999123100000010000000000000BRLOGNACNOR3105
012026020402LPSB3       010LOPES BRASILON      NM   R$  000000000018400000000001900000000000180000000000018500000000001830000000000183000000000018500408000000000000272100000000000050429200000000000000009999123100000010000000000000BRLPSBACNOR0116
012026020402LREN3       010LOJAS RENNERON      NM   R$  000000000154800000000015550000000001502000000000152300000000015200000000001520000000000152518224000000000009485300000000014450754500000000000000009999123100000010000000000000BRLRENACNOR1228
012026020402MTRE3       010MITRE REALTYON  ED  NM   R$  000000000040700000000004070000000000389000000000039300000000003930000000000393000000000039401163000000000000706700000000000278336300000000000000009999123100000010000000000000BRMTREACNOR6131
012026020402MTSA4       010METISA      PN           R$  000000000495000000000050950000000004949000000000497100000000050950000000004407000000000510000005000000000000001300000000000006463100000000000000009999123100000010000000000000BRMTSAACNPR9079
012026020402JALL3       010JALLESMACHADON      NM   R$  000000000030900000000003090000000000294000000000029900000000002950000000000295000000000029701137000000000000959300000000000287131200000000000000009999123100000010000000000000BRJALLACNOR0106
012026020402REDE3       010REDE ENERGIAON           R$  000000000062400000000006240000000000621000000000062200000000006210000000000620000000000062400004000000000000000500000000000000311000000000000000009999123100000010000000000000BRREDEACNOR7134
012026020402RENT3       010LOCALIZA    ON      NM   R$  000000000505800000000050670000000004927000000000500000000000050060000000004972000000000500736192000000000020373000000000101879453200000000000000009999123100000010000000000000BRRENTACNOR4205
012026020402RENT4       010LOCALIZA    PN      NM   R$  000000000490300000000049040000000004760000000000482800000000048360000000004836000000000486101308000000000000235000000000001134781300000000000000009999123100000010000000000000BRRENTACNPR1100
012026020402EKTR4       010ELEKTRO     PN           R$  000000000391100000000039110000000003900000000000390600000000039000000000003900000000000391100005000000000000001600000000000006249900000000000000009999123100000010000000000000BREKTRACNPR7174
012026020402KEPL3       010KEPLER WEBERON      NM   R$  000000000102500000000010250000000001000000000000100500000000010100000000001003000000000101007237000000000002295000000000002308029800000000000000009999123100000010000000000000BRKEPLACNOR1069
012026020402MILS3       010MILLS       ON      NM   R$  000000000156700000000015670000000001497000000000151300000000015200000000001506000000000152002429000000000000892300000000001350513000000000000000009999123100000010000000000000BRMILSACNOR2132
012026020402MLAS3       010MULTILASER  ON      NM   R$  000000000014200000000001420000000000135000000000013700000000001360000000000136000000000013701443000000000001574900000000000216124800000000000000009999123100000010000000000000BRMLASACNOR9102
012026020402MNDL3       010MUNDIAL     ON           R$  000000000179000000000017990000000001700000000000174100000000017000000000001660000000000175000031000000000000021000000000000036579300000000000000009999123100000010000000000000BRMNDLACNOR4109
012026020402EMAE4       010EMAE        PN           R$  000000000469900000000047440000000004600000000000467900000000047440000000004605000000000474500031000000000000006000000000000028078400000000000000009999123100000010000000000000BREMAEACNPR1128
012026020402EMBJ3       010EMBRAER     ON      NM   R$  000000000957500000000096060000000009042000000000922300000000092170000000009201000000000921727226000000000005624200000000051877318300000000000000009999123100000010000000000000BREMBJACNOR1102
012026020402GMAT3       010GRUPO MATEUSON      NM   R$  000000000050200000000005050000000000488000000000049400000000004930000000000493000000000049605222000000000008706400000000004309177300000000000000009999123100000010000000000000BRGMATACNOR7109
012026020402GOAU3       010GERDAU MET  ON      N1   R$  000000000097100000000009840000000000955000000000096600000000009600000000000959000000000096500225000000000000046500000000000044959800000000000000009999123100000010000000000000BRGOAUACNOR1274
012026020402GOAU4       010GERDAU MET  PN      N1   R$  000000000102200000000010240000000000991000000000100400000000010040000000001000000000000100513309000000000008424400000000008461204600000000000000009999123100000010000000000000BRGOAUACNPR8275
012026020402MDNE3       010MOURA DUBEUXON      NM   R$  000000000296000000000029600000000002815000000000286700000000028840000000002853000000000288405347000000000001208800000000003465695800000000000000009999123100000010000000000000BRMDNEACNOR9104
012026020402MEAL3       010IMC S/A     ON      NM   R$  000000000011400000000001160000000000112000000000011300000000001150000000000113000000000011500101000000000000144100000000000016347700000000000000009999123100000010000000000000BRMEALACNOR9105
012026020402JHSF3       010JHSF PART   ON  ED  NM   R$  000000000099600000000010070000000000940000000000096600000000009480000000000947000000000095207163000000000004963400000000004794649800000000000000009999123100000010000000000000BRJHSFACNOR2156
012026020402JSLG3       010JSL         ON      NM   R$  000000000077800000000007820000000000743000000000076400000000007720000000000772000000000077903590000000000002069300000000001581029100000000000000009999123100000010000000000000BRJSLGACNOR2123
012026020402SUZB3       010SUZANO S.A. ON      NM   R$  000000000490700000000049730000000004835000000000493300000000049600000000004960000000000496127468000000000008209700000000040500480900000000000000009999123100000010000000000000BRSUZBACNOR0135
012026020402GOLL54      010GOL         PN *P   N2   R$  000000000111500000000011430000000001115000000000113600000000011430000000001143000000000114400349000000000080315000000000000091304753000000000000009999123100010000000000000000BRGOLLA01PR5100
012026020402GRND3       010GRENDENE    ON      NM   R$  000000000050000000000005000000000000486000000000049100000000004930000000000489000000000049304425000000000003123000000000001534611900000000000000009999123100000010000000000000BRGRNDACNOR3182
012026020402GUAR3       010GUARARAPES  ON      NM   R$  000000000102500000000010290000000000993000000000100800000000010140000000001008000000000101407430000000000002439700000000002461253100000000000000009999123100000010000000000000BRGUARACNOR4175
012026020402RSUL4       010RIOSULENSE  PN           R$  000000000647900000000064800000000006340000000000638900000000063770000000006300000000000638200017000000000000001900000000000012140700000000000000009999123100000010000000000000BRRSULACNPR3116
012026020402RVEE3       010REVEE       ON      NM   R$  000000000019100000000002290000000000191000000000020500000000002290000000000161000000000022900006000000000000001900000000000000390400000000000000009999123100000010000000000000BRRVEEACNOR9102
012026020402MNPR3       010MINUPAR     ON           R$  000000000044200000000004450000000000433000000000043900000000004380000000000434000000000043800040000000000000008300000000000003645900000000000000009999123100000010000000000000BRMNPRACNOR5123
012026020402MOTV3       010MOTIVA SA   ON      NM   R$  000000000173600000000017360000000001662000000000167700000000016730000000001672000000000167911277000000000005952400000000009982903200000000000000009999123100000010000000000000BRMOTVACNOR7102
012026020402PRNR3       010PRINER      ON      NM   R$  000000000188900000000018990000000001837000000000186500000000018700000000001860000000000187002645000000000000479000000000000893642100000000000000009999123100000010000000000000BRPRNRACNOR4111
012026020402PSSA3       010PORTO SEGUROON      NM   R$  000000000514500000000052530000000005048000000000512800000000052530000000005251000000000525313796000000000004072000000000020882587600000000000000009999123100000010000000000000BRPSSAACNOR7161
012026020402PTBL3       010PORTOBELLO  ON      NM   R$  000000000035200000000003520000000000337000000000034400000000003440000000000340000000000034400391000000000000147700000000000050900800000000000000009999123100000010000000000000BRPTBLACNOR8132
012026020402IBOV11      010IBOVESPA    IBO/         R$  000001808880000000180888000000018088800000001808880000000180888000000000000000000000000000000088000000000000369613000000066858556344000000000000009999123100001000000000000000BRIBOVINDM18015
012026020402OBTC3       010ORANJEBTC   ON           R$  000000000071500000000007150000000000672000000000069200000000006810000000000681000000000068202213000000000000623300000000000431380100000000000000009999123100000010000000000000BROBTCACNOR0100
012026020402ODPV3       010ODONTOPREV  ON      NM   R$  000000000121700000000012170000000001180000000000118900000000011940000000001190000000000119505514000000000001922400000000002287271100000000000000009999123100000010000000000000BRODPVACNOR4213
012026020402OFSA3       010OUROFINO S/AON      NM   R$  000000000243600000000024360000000002368000000000238700000000023680000000002201000000000236900008000000000000003800000000000009073200000000000000009999123100000010000000000000BROFSAACNOR7122
012026020402ONCO3       010ONCOCLINICASON      NM   R$  000000000023500000000002610000000000229000000000024200000000002540000000000249000000000025502377000000000005281100000000001279498900000000000000009999123100000010000000000000BRONCOACNOR6102
012026020402POSI3       010POSITIVO TECON      NM   R$  000000000046500000000004700000000000430000000000044000000000004350000000000435000000000043703966000000000002922100000000001287968100000000000000009999123100000010000000000000BRPOSIACNOR9118
012026020407TXRX4       010TEX RENAUX  PN           R$  000000000018700000000001870000000000187000000000018700000000001870000000000157000000000018800001000000000000000100000000000000018700000000000000009999123100000010000000000000BRTXRXACNPR0142
012026020408RPMG3       010PET MANGUINHON           R$  000000000020800000000002130000000000208000000000020800000000002080000000000208000000000021400006000000000000003400000000000000707800000000000000009999123100000010000000000000BRRPMGACNOR9194
012026020408NEXP3       010NEXPE       ON           R$  000000000028900000000002900000000000286000000000028900000000002860000000000285000000000029900007000000000000001500000000000000433900000000000000009999123100000010000000000000BRNEXPACNOR0101
012026020408OSXB3       010OSX BRASIL  ON      NM   R$  000000000017000000000001700000000000170000000000017000000000001700000000000170000000000019600007000000000000001500000000000000255000000000000000009999123100000010000000000000BROSXBACNOR8109
012026020408CTAX3       010CONTAX      ON           R$  000000000009200000000000920000000000092000000000009200000000000920000000000091000000000009400002000000000000003000000000000000276000000000000000009999123100000010000000000000BRCTAXACNOR3119
012026020408AGXY3       010AGROGALAXY  ON      NM   R$  000000000028700000000002960000000000272000000000028300000000002770000000000277000000000028300175000000000000025300000000000007178000000000000000009999123100000010000000000000BRAGXYACNOR4104
012026020408BOBR4       010BOMBRIL     PN           R$  000000000012000000000001200000000000120000000000012000000000001200000000000120000000000012800010000000000000020700000000000002484000000000000000009999123100000010000000000000BRBOBRACNPR3128
012026020408PMAM3       010PARANAPANEMAON      NM   R$  000000000007300000000000760000000000071000000000007300000000000730000000000072000000000007300801000000000001691500000000000124321200000000000000009999123100000010000000000000BRPMAMACNOR3045
012026020408AMBP3       010AMBIPAR     ON      NM   R$  000000000002900000000000290000000000027000000000002700000000000280000000000027000000000002801483000000000012336900000000000344763300000000000000009999123100000010000000000000BRAMBPACNOR6105
012026020408AMER3       010AMERICANAS  ON      NM   R$  000000000056400000000005730000000000543000000000055500000000005450000000000545000000000054702637000000000002240900000000001245278800000000000000009999123100000010000000000000BRAMERACNOR6103
012026020408HOOT4       010HOTEIS OTHONPN           R$  000000000075000000000007500000000000695000000000070000000000007480000000000698000000000074800007000000000000004600000000000003222200000000000000009999123100000010000000000000BRHOOTACNPR9015
012026020408LIGT3       010LIGHT S/A   ON      NM   R$  000000000052400000000005240000000000506000000000051500000000005180000000000514000000000051802850000000000000926500000000000477268700000000000000009999123100000010000000000000BRLIGTACNOR2125
012026020408JFEN3       010JOAO FORTES ON           R$  000000000010800000000001080000000000098000000000009900000000001030000000000099000000000010100083000000000000054000000000000005396100000000000000009999123100000010000000000000BRJFENACNOR0061
012026020408RSID3       010ROSSI RESID ON      NM   R$  000000000017000000000001700000000000170000000000017000000000001700000000000164000000000017400001000000000000001200000000000000204000000000000000009999123100000010000000000000BRRSIDACNOR8121
012026020408OIBR3       010OI          ON      N1   R$  000000000001800000000000180000000000018000000000001800000000000180000000000018000000000001900171000000000000635600000000000011440800000000000000009999123100000010000000000000BROIBRACNOR1112
012026020408OIBR4       010OI          PN      N1   R$  000000000011900000000001190000000000119000000000011900000000001190000000000119000000000012900005000000000000001300000000000000154700000000000000009999123100000010000000000000BROIBRACNPR8111
012026020410SMFT9       010SMART FIT   ON  REC NM   R$  000000000219300000000021930000000002161000000000218400000000021700000000001900000000000229900011000000000000002000000000000004368000000000000000009999123100000010000000000000BRSMFTR04OR0117
012026020410IFCM1       010INFRACOMM   DIR ORD NM   R$  000000000000100000000000010000000000001000000000000100000000000010000000000000000000000000100154000000000000171900000000000000171900000000000000009999123100000010000000000000BRIFCMD06OR2108
012026020410PGMN9       010PAGUE MENOS ON  REC NM   R$  000000000061000000000006680000000000600000000000064800000000006520000000000640000000000076800046000000000000008000000000000005189000000000000000009999123100000010000000000000BRPGMNR06OR2105
012026020410BMEB9       010MERCANTIL   ON  REC N1   R$  000000000629700000000063000000000006050000000000619100000000061950000000006050000000000649900031000000000000020100000000000124443700000000000000009999123100000010000000000000BRBMEBR04OR7209
012026020410BMGB2       010BANCO BMG   DIR PRE N1   R$  000000000007000000000000710000000000063000000000006700000000000710000000000066000000000007100460000000000000117000000000000007871700000000000000009999123100000010000000000000BRBMGBD02PR3117
012026020410BGIP2       010BANESE      DIR PRE      R$  000000000032100000000003210000000000321000000000032100000000003210000000000330000000000047900003000000000000000700000000000000224700000000000000009999123100000010000000000000BRBGIPD10PR4214
012026020412PEMA11      010FII PERFORMACI  ER       R$  000000000327600000000032760000000003276000000000327600000000032760000000003276000000000570900001000000000000000015000000000000049140000000000000009999123100000010000000000000BRPEMACTF003155
012026020412SAPI11      010FII SAPI    CI  ER       R$  000000000091900000000009220000000000915000000000091600000000009170000000000917000000000092000326000000000000030953000000000028375730000000000000009999123100000010000000000000BRSAPICTF001130
012026020412RINV11      010FII REAL INVCI           R$  000000001117800000000111800000000011047000000001114700000000111200000000011047000000001112000699000000000000003305000000000036841420000000000000009999123100000010000000000000BRRINVCTF004140
012026020412RMBS11      010FII RMBS    CI           R$  000000000086000000000009120000000000841000000000089600000000009120000000000912000000000091500073000000000000004332000000000003883804000000000000009999123100000010000000000000BRRMBSCTF007101
012026020412RNGO11      010FII RIONEGROCI  ER       R$  000000000519400000000053290000000005161000000000519400000000051900000000005190000000000522500139000000000000002151000000000011173181000000000000009999123100000010000000000000BRRNGOCTF003263
012026020412SMRE11      010FII SMRE    CI  ER       R$  000000000649900000000065250000000006499000000000649900000000065000000000006499000000000652500199000000000000002512000000000016326948000000000000009999123100000010000000000000BRSMRECTF001123
012026020412ICRI11      010FII CI IPCA CI  ER       R$  000000000934600000000094050000000009298000000000936000000000093150000000009315000000000936201796000000000000009120000000000085363464000000000000009999123100000010000000000000BRICRICTF004124
012026020412INLG11      010FII INTER LGCI  ER       R$  000000000771500000000077560000000007697000000000771800000000077560000000007699000000000775600565000000000000003261000000000025169534000000000000009999123100000010000000000000BRINLGCTF008117
012026020412INRD11      010FII INTER RDCI  ER       R$  000000000765000000000079890000000007626000000000775200000000079890000000007779000000000798900036000000000000000245000000000001899471000000000000009999123100000010000000000000BRINRDCTF002117
012026020412MFII11      010FII MERITO ICI  ER       R$  000000000781000000000078100000000007727000000000777900000000077800000000007769000000000778000850000000000000017561000000000136620464000000000000009999123100000010000000000000BRMFIICTF008257
012026020412MGHT11      010FII MOGNO HTCI           R$  000000000167000000000016880000000001650000000000165400000000016880000000001650000000000168800023000000000000000998000000000001651353000000000000009999123100000010000000000000BRMGHTCTF005155
012026020412RECD11      010FII RECD    CI  ER       R$  000000000071500000000007150000000000713000000000071400000000007140000000000714000000000074500007000000000000000065000000000000046437000000000000009999123100000010000000000000BRRECDCTF004118
012026020412RECM11      010FII RECM    CI           R$  000000000086000000000008620000000000859000000000085900000000008600000000000859000000000086300067000000000000005722000000000004918967000000000000009999123100000010000000000000BRRECMCTF005115
012026020412RECR11      010FII REC RECECI           R$  000000000828100000000083260000000008272000000000830500000000083060000000008306000000000831501635000000000000029533000000000245287638000000000000009999123100000010000000000000BRRECRCTF004171
012026020412RECT11      010FII REC RENDCI           R$  000000000397200000000040480000000003950000000000398200000000039500000000003949000000000396301106000000000000038423000000000153027930000000000000009999123100000010000000000000BRRECTCTF000187
012026020412GGRC11      010FII GGRCOVEPCI  ER       R$  000000000099800000000009990000000000996000000000099700000000009960000000000996000000000099823945000000000000782583000000000780452574000000000000009999123100000010000000000000BRGGRCCTF002217
012026020412SPMO11      010FII SUPREMO CI           R$  000000001220000000000122000000000012200000000001220000000000122000000000000000000000000000000001000000000000000982000000000011980400000000000000009999123100000010000000000000BRSPMOCTF004103
012026020412SPTW11      010FII SPTW PAXCI  ER       R$  000000000400300000000041810000000003997000000000407200000000040560000000004024000000000410900131000000000000003929000000000015999576000000000000009999123100000010000000000000BRSPTWCTF002255
012026020412SPXS11      010FII SPX SYN CI           R$  000000000090000000000009000000000000881000000000088900000000008830000000000883000000000088603826000000000000210108000000000186806693000000000000009999123100000010000000000000BRSPXSCTF002143
012026020412PATC11      010FII PATC VBICI  ER       R$  000000000398200000000040130000000003962000000000398000000000040000000000004000000000000405600087000000000000000975000000000003880877000000000000009999123100000010000000000000BRPATCCTF002190
012026020412PATL11      010FII PATL VBICI  ER       R$  000000000660900000000066090000000006566000000000659300000000065800000000006581000000000659403301000000000000019359000000000127640198000000000000009999123100000010000000000000BRPATLCTF003166
012026020412PCIP11      010FII PCIP PAXCI           R$  000000000884800000000088480000000008705000000000874800000000087060000000008706000000000873004765000000000000040839000000000357262621000000000000009999123100000010000000000000BRPCIPCTF003104
012026020412RBFM11      010FII RIOB MT CI  ER       R$  000000000105100000000010680000000001046000000000105400000000010570000000001051000000000105701373000000000000025731000000000027127075000000000000009999123100000010000000000000BRRBFMCTF004101
012026020412RBHG11      010FII RBCRI IVCI  ER       R$  000000000687000000000069140000000006738000000000680100000000068010000000006738000000000680100559000000000000002029000000000013799372000000000000009999123100000010000000000000BRRBHGCTF002154
012026020412RBHY11      010FII RB YIELDCI  ER       R$  000000000784100000000079200000000007751000000000786000000000079140000000007844000000000791400805000000000000006685000000000052549488000000000000009999123100000010000000000000BRRBHYCTF005164
012026020412RBIR11      010FII RBRES IVCI  EA       R$  000000000917900000000091790000000009065000000000907300000000091590000000009066000000000915900068000000000000002127000000000019298878000000000000009999123100000010000000000000BRRBIRCTF007126
012026020412RBLG11      010FII RBCAP LGCI  ER       R$  000000000580400000000058040000000005804000000000580400000000058040000000003600000000000580400001000000000000000050000000000000290200000000000000009999123100000010000000000000BRRBLGCTF004161
012026020412RBOP11      010FII MERC BR CI           R$  000000002050100000000209000000000020190000000002036900000000209000000000020500000000002159000014000000000000000152000000000003096151000000000000009999123100000010000000000000BRRBOPCTF009128
012026020412MAGM11      010FII MAGM    CI           R$  000000000100000000000010000000000001000000000000100000000000010000000000000994000000000100100003000000000000000739000000000000739000000000000000009999123100000010000000000000BRMAGMCTF005104
012026020412MANA11      010FII MANATI  CI  ER       R$  000000000092800000000009310000000000925000000000092800000000009270000000000929000000000093003586000000000000075669000000000070249360000000000000009999123100000010000000000000BRMANACTF006145
012026020412MAXR11      010FII MAX RET CI           R$  000000000631400000000064000000000006313000000000635800000000064000000000006260000000000641000045000000000000000314000000000001996689000000000000009999123100000010000000000000BRMAXRCTF009287
012026020412NAVT11      010FII NAVI TOTCI           R$  000000000767900000000076800000000007650000000000766900000000076800000000007651000000000768000026000000000000000407000000000003121493000000000000009999123100000010000000000000BRNAVTCTF015158
012026020412NCRI11      010FII NAVI CRICI           R$  000000000092200000000009230000000000896000000000091600000000009110000000000890000000000091100024000000000000000175000000000000160355000000000000009999123100000010000000000000BRNCRICTF004137
012026020412RBRD11      010FII RB II   CI  ER       R$  000000000410500000000041060000000004083000000000409800000000041000000000004096000000000410000070000000000000001872000000000007672983000000000000009999123100000010000000000000BRRBRDCTF008283
012026020412RBRL11      010FII RBR LOG CI           R$  000000000948400000000094980000000009387000000000944700000000094400000000009440000000000945601337000000000000008817000000000083294696000000000000009999123100000010000000000000BRRBRLCTF001173
012026020412RBRP11      010FII RBR PROPCI           R$  000000000551500000000055150000000005457000000000548400000000055000000000005471000000000550001673000000000000018325000000000100498675000000000000009999123100000010000000000000BRRBRPCTF002192
012026020412RBRR11      010FII RBRHGRADCI           R$  000000000880000000000088220000000008676000000000874300000000087150000000008677000000000871507182000000000000072508000000000633944625000000000000009999123100000010000000000000BRRBRRCTF008200
012026020412RBRS11      010FII RIOB RR CI  ER       R$  000000000337500000000033750000000003220000000000323600000000033640000000003276000000000336200015000000000000000648000000000002097235000000000000009999123100000010000000000000BRRBRSCTF006151
012026020412RBRX11      010FII RBR MULTCI           R$  000000000088500000000008870000000000876000000000088000000000008800000000000879000000000088010253000000000000457533000000000402708469000000000000009999123100000010000000000000BRRBRXCTF006148
012026020412RBRY11      010FII RBR PCRICI           R$  000000000994800000000099760000000009891000000000994400000000099370000000009935000000000993710248000000000000042359000000000421223649000000000000009999123100000010000000000000BRRBRYCTF004187
012026020412RBVA11      010FII RIOB VA CI  ER       R$  000000000098800000000009910000000000982000000000098800000000009880000000000988000000000099005389000000000000154781000000000153004968000000000000009999123100000010000000000000BRRBVACTF006188
012026020412RCFA11      010FII GP RCFA CI           R$  000000000009200000000000920000000000092000000000009200000000000920000000000060000000000009100001000000000000000403000000000000037076000000000000009999123100000010000000000000BRRCFACTF007101
012026020412RCRB11      010FII RIOB RC CI  ER       R$  000000001401400000000140150000000013763000000001390000000000139210000000013921000000001393100502000000000000004148000000000057660230000000000000009999123100000010000000000000BRRCRBCTF000177
012026020412RCRI11      010FII RCRI    CI           R$  000000001043500000000104510000000010420000000001043600000000104300000000010320000000001043000251000000000000001076000000000011229706000000000000009999123100000010000000000000BRRCRICTF021106
012026020412NEWL11      010FII NEWPORT CI  ER       R$  000000001152000000000116910000000011382000000001150900000000116400000000011640000000001169100121000000000000000994000000000011440928000000000000009999123100000010000000000000BRNEWLCTF004175
012026020412NSLU11      010FII LOURDES CI  ER       R$  000000002090000000000210000000000020602000000002073800000000207230000000020723000000002077000030000000000000000320000000000006636274000000000000009999123100000010000000000000BRNSLUCTF008331
012026020412HCHG11      010FII HECT CRICI           R$  000000000800100000000084000000000008001000000000839900000000084000000000008000000000000840000008000000000000000618000000000005190764000000000000009999123100000010000000000000BRHCHGCTF001156
012026020412HCRI11      010FII CRIANCA CI           R$  000000003075000000000309630000000030300000000003072700000000309630000000030749000000003096200024000000000000000126000000000003871654000000000000009999123100000010000000000000BRHCRICTF006348
