00COTAHIST.2026BOVESPA 20260224                                                                                                                                                                                                                      
012026022402PATI3       010PANATLANTICAON           R$  000000000330500000000033050000000003305000000000330500000000033050000000003306000000000357300002000000000000000600000000000001983000000000000000009999123100000010000000000000BRPATIACNOR6069
012026022402PCAR3       010P.ACUCAR-CBDON      NM   R$  000000000030400000000003150000000000303000000000031100000000003130000000000312000000000031407533000000000007971600000000002483907200000000000000009999123100000010000000000000BRPCARACNOR3170
012026022402RCSL3       010RECRUSUL    ON           R$  000000000029400000000003000000000000283000000000029200000000002940000000000293000000000029400244000000000000133100000000000038925500000000000000009999123100000010000000000000BRRCSLACNOR4134
012026022402RCSL4       010RECRUSUL    PN           R$  000000000067100000000006900000000000582000000000064400000000006370000000000637000000000064010182000000000006917500000000004461688700000000000000009999123100000010000000000000BRRCSLACNPR1134
012026022402KEPL3       010KEPLER WEBERON      NM   R$  000000000097400000000009960000000000961000000000098700000000009930000000000992000000000099307629000000000003151200000000003111237700000000000000009999123100000010000000000000BRKEPLACNOR1069
012026022402KLBN11      010KLABIN S/A  UNT     N2   R$  000000000201000000000020720000000002001000000000203900000000020320000000002030000000000203218739000000000007874400000000016062432900000000000000009999123100000010000000000000BRKLBNCDAM18151
012026022402KLBN3       010KLABIN S/A  ON      N2   R$  000000000040400000000004140000000000399000000000040800000000004100000000000407000000000041001337000000000000624400000000000254952500000000000000009999123100000010000000000000BRKLBNACNOR2179
012026022402KLBN4       010KLABIN S/A  PN      N2   R$  000000000039900000000004120000000000399000000000040600000000004030000000000403000000000040402030000000000002224600000000000903628800000000000000009999123100000010000000000000BRKLBNACNPR9179
012026022402PFRM3       010PROFARMA    ON      NM   R$  000000000091100000000009330000000000903000000000091300000000009110000000000911000000000091200738000000000000155600000000000142141500000000000000009999123100000010000000000000BRPFRMACNOR1122
012026022402PGMN3       010PAGUE MENOS ON      NM   R$  000000000075000000000007600000000000715000000000073500000000007400000000000739000000000074107305000000000003109600000000002285675500000000000000009999123100000010000000000000BRPGMNACNOR8106
012026022402PINE3       010PINE        ON      N2   R$  000000000120100000000012500000000001201000000000121900000000012500000000001250000000000128000027000000000000004600000000000005608800000000000000009999123100000010000000000000BRPINEACNOR1160
012026022402PINE4       010PINE        PN      N2   R$  000000000122500000000013370000000001224000000000129000000000013370000000001337000000000133902497000000000000822300000000001061114300000000000000009999123100000010000000000000BRPINEACNPR8160
012026022402MILS3       010MILLS       ON      NM   R$  000000000154000000000015640000000001526000000000155000000000015640000000001556000000000156403563000000000001497300000000002322178800000000000000009999123100000010000000000000BRMILSACNOR2132
012026022402MLAS3       010MULTILASER  ON      NM   R$  000000000013600000000001390000000000136000000000013700000000001390000000000138000000000013900723000000000000809700000000000111014200000000000000009999123100000010000000000000BRMLASACNOR9102
012026022402MNDL3       010MUNDIAL     ON           R$  000000000178400000000018190000000001730000000000177600000000018190000000001710000000000182000016000000000000003000000000000005328400000000000000009999123100000010000000000000BRMNDLACNOR4109
012026022402MNPR3       010MINUPAR     ON           R$  000000000041000000000004400000000000405000000000041100000000004150000000000411000000000041700092000000000000020300000000000008351900000000000000009999123100000010000000000000BRMNPRACNOR5123
012026022402MOTV3       010MOTIVA SA   ON      NM   R$  000000000167800000000017050000000001656000000000168900000000017000000000001692000000000170024410000000000014483000000000024470119400000000000000009999123100000010000000000000BRMOTVACNOR7102
012026022402SMTO3       010SAO MARTINHOON      NM   R$  000000000164800000000017500000000001640000000000169300000000017450000000001742000000000174508203000000000003628700000000006146514200000000000000009999123100000010000000000000BRSMTOACNOR3129
012026022402TCSA3       010TECNISA     ON      NM   R$  000000000019100000000001930000000000163000000000017400000000001680000000000165000000000016800970000000000000873400000000000152762200000000000000009999123100000010000000000000BRTCSAACNOR3112
012026022402TECN3       010TECHNOS     ON      NM   R$  000000000087000000000008860000000000858000000000086700000000008680000000000863000000000086800197000000000000057600000000000049992300000000000000009999123100000010000000000000BRTECNACNOR6111
012026022402TELB3       010TELEBRAS    ON           R$  000000000129600000000013350000000001295000000000130200000000013000000000001295000000000134500008000000000000000800000000000001041600000000000000009999123100000010000000000000BRTELBACNOR2142
012026022402TELB4       010TELEBRAS    PN           R$  000000000078900000000007910000000000789000000000078900000000007910000000000785000000000079700004000000000000001400000000000001105400000000000000009999123100000010000000000000BRTELBACNPR9142
012026022402TEND3       010TENDA       ON      NM   R$  000000000325600000000032810000000003111000000000316000000000031200000000003117000000000312908366000000000001967800000000006219163100000000000000009999123100000010000000000000BRTENDACNOR4114
012026022402TFCO4       010TRACK FIELD PN      N2   R$  000000000168100000000017430000000001679000000000172700000000017350000000001725000000000173502508000000000000476500000000000823040800000000000000009999123100000010000000000000BRTFCOACNPR8121
012026022402TGMA3       010TEGMA       ON      NM   R$  000000000401100000000040530000000004008000000000403200000000040300000000004030000000000403200916000000000000105800000000000426627300000000000000009999123100000010000000000000BRTGMAACNOR7150
012026022402TIMS3       010TIM         ON      NM   R$  000000000276500000000028350000000002747000000000280600000000028350000000002820000000000283619725000000000005722000000000016058047300000000000000009999123100000010000000000000BRTIMSACNOR5129
012026022402GOAU3       010GERDAU MET  ON      N1   R$  000000000091000000000009170000000000896000000000090400000000009170000000000906000000000091800250000000000000068100000000000061599700000000000000009999123100000010000000000000BRGOAUACNOR1274
012026022402GOAU4       010GERDAU MET  PN      N1   R$  000000000096800000000009690000000000933000000000094700000000009500000000000949000000000095119054000000000017812600000000016876371700000000000000009999123100000010000000000000BRGOAUACNPR8275
012026022402IRBR3       010IRBBRASIL REON      NM   R$  000000000599500000000064880000000005990000000000628800000000064250000000006420000000000643008510000000000001707100000000010734412800000000000000009999123100000010000000000000BRIRBRACNOR4113
012026022402JSLG3       010JSL         ON      NM   R$  000000000083600000000008750000000000831000000000086200000000008640000000000855000000000086505134000000000002279100000000001964851700000000000000009999123100000010000000000000BRJSLGACNOR2123
012026022402RDOR3       010REDE D OR   ON      NM   R$  000000000439100000000044450000000004320000000000436600000000043470000000004345000000000434729644000000000007200800000000031445047600000000000000009999123100000010000000000000BRRDORACNOR8119
012026022402ESPA3       010ESPACOLASER ON      NM   R$  000000000011200000000001140000000000108000000000011000000000001110000000000109000000000011100238000000000000562600000000000061948300000000000000009999123100000010000000000000BRESPAACNOR7105
012026022402ETER3       010ETERNIT     ON      NM   R$  000000000040900000000004090000000000404000000000040500000000004040000000000404000000000040600212000000000000052900000000000021456900000000000000009999123100000010000000000000BRETERACNOR3246
012026022402EUCA4       010EUCATEX     PN      N1   R$  000000000212400000000021750000000002124000000000214900000000021750000000002144000000000217500226000000000000033200000000000071356300000000000000009999123100000010000000000000BREUCAACNPR8046
012026022402EVEN3       010EVEN        ON      NM   R$  000000000084200000000008550000000000831000000000083900000000008400000000000840000000000084101933000000000000558200000000000468816200000000000000009999123100000010000000000000BREVENACNOR8121
012026022402SUZB3       010SUZANO S.A. ON      NM   R$  000000000572800000000058850000000005700000000000585000000000058580000000005854000000000586225534000000000008659900000000050660678900000000000000009999123100000010000000000000BRSUZBACNOR0135
012026022402GGPS3       010GPS         ON      NM   R$  000000000192800000000019540000000001928000000000194400000000019500000000001945000000000195006949000000000002259800000000004394394700000000000000009999123100000010000000000000BRGGPSACNOR9106
012026022402GMAT3       010GRUPO MATEUSON      NM   R$  000000000056600000000005870000000000560000000000057800000000005860000000000586000000000058712110000000000008358700000000004833924500000000000000009999123100000010000000000000BRGMATACNOR7109
012026022402HBOR3       010HELBOR      ON      NM   R$  000000000033000000000003330000000000315000000000032100000000003150000000000315000000000031701149000000000001051200000000000337811100000000000000009999123100000010000000000000BRHBORACNOR3120
012026022402HBRE3       010HBR REALTY  ON      NM   R$  000000000035900000000003590000000000343000000000034700000000003500000000000348000000000035001581000000000001378900000000000479855500000000000000009999123100000010000000000000BRHBREACNOR4101
012026022402HBSA3       010HIDROVIAS   ON      NM   R$  000000000040700000000004120000000000404000000000040800000000004120000000000409000000000041202248000000000001753400000000000715593200000000000000009999123100000010000000000000BRHBSAACNOR0102
012026022402ITSA3       010ITAUSA      ON      N1   R$  000000000145200000000014800000000001452000000000146500000000014690000000001469000000000148400830000000000000146700000000000214993100000000000000009999123100000010000000000000BRITSAACNOR0455
012026022402ITSA4       010ITAUSA      PN      N1   R$  000000000146700000000014910000000001460000000000147900000000014840000000001483000000000148447124000000000047083400000000069681602900000000000000009999123100000010000000000000BRITSAACNPR7455
012026022402FHER3       010FER HERINGERON      NM   R$  000000000042000000000004200000000000412000000000041700000000004190000000000414000000000041900008000000000000002000000000000000834900000000000000009999123100000010000000000000BRFHERACNOR5103
012026022402FICT3       010FICTORALIMENON           R$  000000000004000000000000690000000000037000000000005400000000000690000000000069000000000007000431000000000000616600000000000033369800000000000000009999123100000010000000000000BRFICTACNOR3101
012026022402FIQE3       010UNIFIQUE    ON      NM   R$  000000000051800000000005360000000000518000000000053000000000005320000000000532000000000053601432000000000000661500000000000350645900000000000000009999123100000010000000000000BRFIQEACNOR5112
012026022402PDGR3       010PDG REALT   ON      NM   R$  000000000021600000000002390000000000216000000000022900000000002230000000000223000000000022800149000000000000055200000000000012693700000000000000009999123100000010000000000000BRPDGRACNOR8123
012026022402PDTC3       010PADTEC      ON      NM   R$  000000000016000000000001650000000000156000000000016100000000001630000000000159000000000016000081000000000000034200000000000005508600000000000000009999123100000010000000000000BRPDTCACNOR3101
012026022402PEAB4       010PAR AL BAHIAPN           R$  000000000413400000000041350000000004134000000000413400000000041350000000004000000000000439800002000000000000000200000000000000826900000000000000009999123100000010000000000000BRPEABACNPR0137
012026022402PETR3       010PETROBRAS   ON      N2   R$  000000000420000000000042770000000004196000000000425200000000042690000000004268000000000427022532000000000010752600000000045726559800000000000000009999123100000010000000000000BRPETRACNOR9212
012026022402PETR4       010PETROBRAS   PN      N2   R$  000000000388600000000039660000000003886000000000393700000000039570000000003956000000000395777170000000000043263600000000170350107700000000000000009999123100000010000000000000BRPETRACNPR6223
012026022402POSI3       010POSITIVO TECON      NM   R$  000000000041200000000004250000000000410000000000041700000000004210000000000421000000000042202001000000000001888900000000000788138900000000000000009999123100000010000000000000BRPOSIACNOR9118
012026022402RANI3       010IRANI       ON      NM   R$  000000000093500000000009720000000000935000000000096200000000009580000000000958000000000096503430000000000001116400000000001074307100000000000000009999123100000010000000000000BRRANIACNOR5079
012026022402RAPT3       010RANDON PART ON      N1   R$  000000000066400000000006750000000000652000000000066800000000006590000000000659000000000067400028000000000000017500000000000011700400000000000000009999123100000010000000000000BRRAPTACNOR7166
012026022402RAPT4       010RANDON PART PN      N1   R$  000000000065500000000006750000000000653000000000066600000000006710000000000671000000000067305027000000000005254200000000003500924600000000000000009999123100000010000000000000BRRAPTACNPR4166
012026022402JHSF3       010JHSF PART   ON      NM   R$  000000000100100000000010230000000000998000000000101400000000010130000000001012000000000101704678000000000002527800000000002564427500000000000000009999123100000010000000000000BRJHSFACNOR2156
012026022402PRIO3       010PETRORIO    ON      NM   R$  000000000540000000000054890000000005370000000000542800000000054680000000005462000000000546834294000000000009918000000000053840682400000000000000009999123100000010000000000000BRPRIOACNOR1111
012026022402RECV3       010PETRORECSA  ON      NM   R$  000000000115800000000011990000000001158000000000118400000000011990000000001199000000000120010082000000000004251700000000005037808500000000000000009999123100000010000000000000BRRECVACNOR3110
012026022402ONCO3       010ONCOCLINICASON      NM   R$  000000000028400000000002850000000000255000000000026200000000002590000000000258000000000025906947000000000006448100000000001691226400000000000000009999123100000010000000000000BRONCOACNOR6102
012026022402OPCT3       010OCEANPACT   ON      NM   R$  000000000095100000000009540000000000939000000000094600000000009420000000000937000000000094301113000000000000308300000000000291868500000000000000009999123100000010000000000000BROPCTACNOR0100
012026022402ORVR3       010ORIZON      ON      NM   R$  000000000725000000000072750000000007182000000000722900000000072500000000007242000000000725005357000000000000982400000000007102497000000000000000009999123100000010000000000000BRORVRACNOR0101
012026022402AALR3       010ALLIAR      ON      NM   R$  000000000044600000000004650000000000434000000000045000000000004470000000000447000000000045200202000000000000078700000000000035472300000000000000009999123100000010000000000000BRAALRACNOR6104
012026022402ABCB4       010ABC BRASIL  PN      N2   R$  000000000274500000000027970000000002732000000000277100000000027970000000002784000000000279702581000000000000523100000000001449946100000000000000009999123100000010000000000000BRABCBACNPR4150
012026022402ABEV3       010AMBEV S/A   ON           R$  000000000162300000000016580000000001623000000000164900000000016580000000001656000000000165842207000000000031221100000000051490904800000000000000009999123100000010000000000000BRABEVACNOR1134
012026022402BBDC3       010BRADESCO    ON      N1   R$  000000000183900000000018670000000001826000000000185300000000018580000000001856000000000185915008000000000005004500000000009277041900000000000000009999123100000010000000000000BRBBDCACNOR1797
012026022402BBDC4       010BRADESCO    PN      N1   R$  000000000213200000000021510000000002105000000000213400000000021400000000002137000000000214147711000000000030613800000000065349689900000000000000009999123100000010000000000000BRBBDCACNPR8797
012026022402BEES3       010BANESTES    ON           R$  000000000086900000000008900000000000868000000000087400000000008750000000000873000000000087400083000000000000019800000000000017310500000000000000009999123100000010000000000000BRBEESACNOR9415
012026022402BEES4       010BANESTES    PN           R$  000000000085100000000008940000000000842000000000086200000000008850000000000880000000000088700047000000000000011200000000000009664600000000000000009999123100000010000000000000BRBEESACNPR6340
012026022402RADL3       010RAIADROGASILON      NM   R$  000000000261900000000026210000000002545000000000258500000000025950000000002590000000000259531710000000000008357400000000021609036200000000000000009999123100000010000000000000BRRADLACNOR0165
012026022402SAPR11      010SANEPAR     UNT     N2   R$  000000000472900000000047640000000004660000000000470500000000047020000000004686000000000470206568000000000001119700000000005269113500000000000000009999123100000010000000000000BRSAPRCDAM13121
012026022402SAPR3       010SANEPAR     ON      N2   R$  000000000113000000000011410000000001107000000000111700000000011160000000001113000000000111700464000000000000128300000000000143318300000000000000009999123100000010000000000000BRSAPRACNOR9162
012026022402SAPR4       010SANEPAR     PN      N2   R$  000000000090000000000009070000000000887000000000089600000000008890000000000888000000000088902780000000000001149000000000001029998700000000000000009999123100000010000000000000BRSAPRACNPR6162
012026022402SBFG3       010GRUPO SBF   ON      NM   R$  000000000128800000000013180000000001281000000000130000000000012970000000001297000000000129804661000000000002484400000000003230136300000000000000009999123100000010000000000000BRSBFGACNOR1104
012026022402SYNE3       010SYN PROP TECON      NM   R$  000000000048400000000004890000000000484000000000048600000000004870000000000486000000000048700714000000000000220700000000000107442000000000000000009999123100000010000000000000BRSYNEACNOR2107
012026022402TAEE11      010TAESA       UNT     N2   R$  000000000450300000000046110000000004481000000000453900000000045000000000004498000000000450012979000000000003270900000000014849502800000000000000009999123100000010000000000000BRTAEECDAM10153
012026022402TAEE3       010TAESA       ON      N2   R$  000000000147800000000015130000000001478000000000149700000000014860000000001481000000000148700516000000000000100700000000000150817500000000000000009999123100000010000000000000BRTAEEACNOR9153
012026022402TAEE4       010TAESA       PN      N2   R$  000000000151200000000015440000000001502000000000152100000000015030000000001503000000000150400634000000000000161200000000000245223800000000000000009999123100000010000000000000BRTAEEACNPR6153
012026022402TRIS3       010TRISUL      ON      NM   R$  000000000073000000000007500000000000730000000000074400000000007500000000000744000000000075100594000000000000246500000000000183568400000000000000009999123100000010000000000000BRTRISACNOR4122
012026022402TTEN3       0103TENTOS     ON      NM   R$  000000000167000000000016990000000001661000000000168900000000016870000000001687000000000169504813000000000001069100000000001806653300000000000000009999123100000010000000000000BRTTENACNOR0105
012026022402TUPY3       010TUPY        ON      NM   R$  000000000128500000000013500000000001279000000000132200000000013440000000001342000000000134504113000000000001468700000000001941737800000000000000009999123100000010000000000000BRTUPYACNOR1185
012026022402MATD3       010MATER DEI   ON      NM   R$  000000000057900000000005960000000000579000000000058700000000005960000000000586000000000059600624000000000000091400000000000053709200000000000000009999123100000010000000000000BRMATDACNOR4106
012026022402MBRF3       010MARFRIG     ON      NM   R$  000000000196000000000020810000000001949000000000202100000000020440000000002042000000000205024776000000000054439500000000110053900700000000000000009999123100000010000000000000BRMBRFACNOR1100
012026022402NEOE3       010NEOENERGIA  ON      NM   R$  000000000327900000000032870000000003277000000000328000000000032800000000003278000000000328003013000000000002140500000000007021067600000000000000009999123100000010000000000000BRNEOEACNOR3127
012026022402RAIL3       010RUMO S.A.   ON      NM   R$  000000000167700000000017400000000001677000000000171800000000017160000000001716000000000172240226000000000022095400000000037969122500000000000000009999123100000010000000000000BRRAILACNOR9106
012026022402SBSP3       010SABESP      ON      NM   R$  000000001531400000000154210000000015140000000001531700000000154000000000015376000000001540120411000000000003360500000000051476110400000000000000009999123100000010000000000000BRSBSPACNOR5165
012026022402TASA3       010TAURUS ARMASON      N2   R$  000000000056600000000005750000000000555000000000056800000000005750000000000566000000000057500131000000000000027100000000000015416900000000000000009999123100000010000000000000BRTASAACNOR7106
012026022402TASA4       010TAURUS ARMASPN      N2   R$  000000000057800000000005880000000000565000000000057200000000005670000000000567000000000057101032000000000000446200000000000255541200000000000000009999123100000010000000000000BRTASAACNPR4106
012026022402LJQQ3       010QUERO-QUERO ON      NM   R$  000000000022800000000002330000000000220000000000022400000000002240000000000223000000000022403699000000000005599000000000001259562300000000000000009999123100000010000000000000BRLJQQACNOR5105
012026022402LOGG3       010LOG COM PROPON      NM   R$  000000000273300000000028180000000002733000000000279800000000028000000000002800000000000281901517000000000000417200000000001167573300000000000000009999123100000010000000000000BRLOGGACNOR7112
012026022402LOGN3       010LOG-IN      ON      NM   R$  000000000325100000000033460000000003214000000000326200000000032500000000003246000000000325000129000000000000017500000000000057095800000000000000009999123100000010000000000000BRLOGNACNOR3105
012026022402LPSB3       010LOPES BRASILON      NM   R$  000000000019000000000001960000000000188000000000019300000000001960000000000193000000000019600402000000000000177100000000000034272200000000000000009999123100000010000000000000BRLPSBACNOR0116
012026022402LREN3       010LOJAS RENNERON      NM   R$  000000000156000000000015970000000001554000000000157900000000015880000000001588000000000159034041000000000029336200000000046325222300000000000000009999123100000010000000000000BRLRENACNOR1228
012026022402MTRE3       010MITRE REALTYON      NM   R$  000000000041500000000004190000000000412000000000041500000000004160000000000415000000000041600564000000000000278500000000000115616900000000000000009999123100000010000000000000BRMTREACNOR6131
012026022402MTSA4       010METISA      PN           R$  000000000600000000000060000000000005987000000000599200000000059870000000005802000000000598800008000000000000000900000000000005393500000000000000009999123100000010000000000000BRMTSAACNPR9079
012026022402LUPA3       010LUPATECH    ON      NM   R$  000000000012000000000001230000000000118000000000012000000000001220000000000120000000000012200052000000000000077700000000000009370700000000000000009999123100000010000000000000BRLUPAACNOR8112
012026022402LUXM4       010TREVISA     PN           R$  000000000043400000000004390000000000434000000000043600000000004390000000000406000000000043500005000000000000001700000000000000741400000000000000009999123100000010000000000000BRLUXMACNPR4053
012026022402LWSA3       010LWSA        ON      NM   R$  000000000034600000000003550000000000343000000000034700000000003550000000000353000000000035507417000000000013650100000000004749836200000000000000009999123100000010000000000000BRLWSAACNOR8106
012026022402MYPK3       010IOCHP-MAXIONON      NM   R$  000000000104100000000010950000000001041000000000107700000000010910000000001091000000000109202744000000000001400700000000001508684000000000000000009999123100000010000000000000BRMYPKACNOR7158
012026022402NATU3       010NATURA      ON      NM   R$  000000000094200000000010000000000000938000000000097500000000009980000000000997000000000100016236000000000012950900000000012635688600000000000000009999123100000010000000000000BRNATUACNOR6137
012026022402GEPA3       010GER PARANAP ON           R$  000000000321000000000032100000000003210000000000321000000000032100000000003200000000000330000001000000000000000100000000000000321000000000000000009999123100000010000000000000BRGEPAACNOR2158
012026022402GEPA4       010GER PARANAP PN           R$  000000000355500000000035550000000003501000000000352400000000035540000000003501000000000355400005000000000000000600000000000002114500000000000000009999123100000010000000000000BRGEPAACNPR9165
012026022402GFSA3       010GAFISA      ON      NM   R$  000000000025500000000002550000000000240000000000024300000000002410000000000241000000000024301225000000000001310300000000000319493400000000000000009999123100000010000000000000BRGFSAACNOR3127
012026022402GGBR3       010GERDAU      ON      N1   R$  000000000185000000000018690000000001804000000000183000000000018520000000001841000000000185300314000000000000064900000000000118779300000000000000009999123100000010000000000000BRGGBRACNOR1198
012026022402GGBR4       010GERDAU      PN      N1   R$  000000000215100000000021540000000002067000000000210700000000021130000000002113000000000211550355000000000024680000000000052011210900000000000000009999123100000010000000000000BRGGBRACNPR8198
012026022402AURE3       010AUREN       ON      NM   R$  000000000118700000000012020000000001185000000000119400000000011930000000001192000000000119406592000000000002595500000000003100132800000000000000009999123100000010000000000000BRAUREACNOR9105
012026022402AVLL3       010ALPHAVILLE  ON      NM   R$  000000000008400000000000850000000000081000000000008100000000000840000000000081000000000008500022000000000000035800000000000002935100000000000000009999123100000010000000000000BRAVLLACNOR5103
012026022402AXIA3       010AXIA ENERGIAON      N1   R$  000000000607700000000061830000000006061000000000613700000000061380000000006137000000000614244657000000000011051900000000067830625200000000000000009999123100000010000000000000BRAXIAACNOR0102
012026022402AXIA6       010AXIA ENERGIAPNB     N1   R$  000000000664300000000067390000000006631000000000668700000000067140000000006699000000000671910454000000000002063000000000013796207800000000000000009999123100000010000000000000BRAXIAACNPB1103
012026022402AXIA7       010AXIA ENERGIAPNC     N1   R$  000000000592300000000059880000000005906000000000593600000000059340000000005934000000000594510910000000000001866900000000011083443300000000000000009999123100000010000000000000BRAXIAACNPC9100
012026022402BRBI11      010BR PARTNERS UNT     N2   R$  000000000196200000000019800000000001940000000000195500000000019650000000001963000000000196501400000000000000207000000000000404814500000000000000009999123100000010000000000000BRBRBICDAM10116
012026022402CPFE3       010CPFL ENERGIAON      NM   R$  000000000501900000000051160000000005013000000000508500000000051160000000005104000000000511709456000000000002079100000000010574284800000000000000009999123100000010000000000000BRCPFEACNOR0138
012026022402DASA3       010DASA        ON      NM   R$  000000000041500000000004250000000000414000000000041800000000004160000000000415000000000041601359000000000000557100000000000233415400000000000000009999123100000010000000000000BRDASAACNOR1123
012026022402DESK3       010DESKTOP     ON      NM   R$  000000000136000000000014000000000001240000000000132400000000013850000000001385000000000139008292000000000002064400000000002734433800000000000000009999123100000010000000000000BRDESKACNOR2106
012026022402ATED3       010ATOM EDUC   ON           R$  000000000020700000000002070000000000204000000000020400000000002050000000000204000000000020900037000000000000156600000000000032029200000000000000009999123100000010000000000000BRATEDACNOR1100
012026022402AUAU3       010PETZCOBASI  ON      NM   R$  000000000029600000000003030000000000295000000000030000000000003000000000000300000000000030204463000000000003191900000000000959040700000000000000009999123100000010000000000000BRAUAUACNOR1100
012026022402BBSE3       010BBSEGURIDADEON  EDR NM   R$  000000000343500000000034920000000003417000000000347800000000034840000000003483000000000348521227000000000008163100000000028392929200000000000000009999123100000010000000000000BRBBSEACNOR5128
012026022402COCE5       010COELCE      PNA          R$  000000000300200000000030790000000003002000000000305900000000030610000000003061000000000308900023000000000000005400000000000016522000000000000000009999123100000010000000000000BRCOCEACNPA3150
012026022402COGN3       010COGNA ON    ON      NM   R$  000000000036000000000003690000000000359000000000036500000000003670000000000366000000000036728191000000000028627900000000010474613700000000000000009999123100000010000000000000BRCOGNACNOR2110
012026022402CXSE3       010CAIXA SEGURION      NM   R$  000000000180900000000018380000000001802000000000182500000000018360000000001831000000000183715900000000000004376400000000007987409900000000000000009999123100000010000000000000BRCXSEACNOR7114
012026022402CYRE3       010CYRELA REALTON      NM   R$  000000000316400000000031810000000003134000000000316000000000031730000000003170000000000317418358000000000004675500000000014774894100000000000000009999123100000010000000000000BRCYREACNOR7143
012026022402CYRE4       010CYRELA REALTPN      NM   R$  000000000302700000000030420000000002988000000000301000000000030150000000003015000000000302401981000000000000265300000000000798800300000000000000009999123100000010000000000000BRCYREACNPR4114
012026022402ALPA4       010ALPARGATAS  PN      N1   R$  000000000149500000000014960000000001466000000000147700000000014710000000001471000000000148102850000000000000700200000000001034559900000000000000009999123100000010000000000000BRALPAACNPR7235
012026022402ALPK3       010ESTAPAR     ON      NM   R$  000000000054000000000005550000000000520000000000053300000000005300000000000530000000000053100453000000000000162600000000000086732800000000000000009999123100000010000000000000BRALPKACNOR9101
012026022402ALUP11      010ALUPAR      UNT     N2   R$  000000000356800000000036240000000003561000000000358400000000035800000000003580000000000358704936000000000001040100000000003728751500000000000000009999123100000010000000000000BRALUPCDAM15126
012026022402ALUP3       010ALUPAR      ON      N2   R$  000000000132700000000013470000000001313000000000132800000000013130000000001310000000000133800035000000000000008200000000000010892700000000000000009999123100000010000000000000BRALUPACNOR8126
012026022402ALUP4       010ALUPAR      PN      N2   R$  000000000112000000000011390000000001111000000000112500000000011230000000001122000000000114500058000000000000008600000000000009678600000000000000009999123100000010000000000000BRALUPACNPR5126
012026022402AMAR3       010LOJAS MARISAON      NM   R$  000000000009300000000000940000000000092000000000009300000000000940000000000093000000000009400235000000000000180500000000000016803700000000000000009999123100000010000000000000BRAMARACNOR4115
012026022402AMOB3       010AUTOMOB     ON      NM   R$  000000000132900000000013340000000001309000000000132400000000013340000000001330000000000133400155000000000000040200000000000053264600000000000000009999123100000010000000000000BRAMOBACNOR9101
012026022402FESA3       010FERBASA     ON      N1   R$  000000000124900000000012500000000001249000000000124900000000012500000000001215000000000126900002000000000000000200000000000000249900000000000000009999123100000010000000000000BRFESAACNOR8194
012026022402FESA4       010FERBASA     PN      N1   R$  000000000082100000000008290000000000813000000000082200000000008200000000000820000000000082502139000000000000593100000000000487900900000000000000009999123100000010000000000000BRFESAACNPR5090
012026022402ENGI3       010ENERGISA    ON      N2   R$  000000000129400000000012940000000001262000000000127500000000012780000000001275000000000128000028000000000000003800000000000004847700000000000000009999123100000010000000000000BRENGIACNOR0150
012026022402ENGI4       010ENERGISA    PN      N2   R$  000000000104200000000010480000000001033000000000104100000000010350000000001034000000000104700014000000000000002000000000000002082400000000000000009999123100000010000000000000BRENGIACNPR7146
012026022402ENJU3       010ENJOEI      ON      NM   R$  000000000012200000000001290000000000112000000000012100000000001200000000000117000000000012000743000000000001166400000000000141402300000000000000009999123100000010000000000000BRENJUACNOR9100
012026022402ENMT3       010ENERGISA MT ON           R$  000000000485000000000048500000000004850000000000485000000000048500000000004650000000000485000001000000000000000300000000000001455000000000000000009999123100000010000000000000BRENMTACNOR5125
012026022402EPAR3       010EMBPAR S/A  ON           R$  000000000035400000000003570000000000349000000000035200000000003490000000000349000000000035100060000000000000019500000000000006872000000000000000009999123100000010000000000000BREPARACNOR9107
012026022402EQMA3B      010EQTLMARANHAOON      MB   R$  000000000329900000000033000000000003299000000000329900000000033000000000003215000000000339900002000000000000000200000000000000659900000000000000009999123100000010000000000000BREQMAACNOR8109
012026022402EQPA3       010EQTL PARA   ON           R$  000000000065400000000006540000000000635000000000064600000000006380000000000636000000000063800015000000000000002900000000000001874100000000000000009999123100000010000000000000BREQPAACNOR1112
012026022402EQTL3       010EQUATORIAL  ON      NM   R$  000000000418000000000042440000000004169000000000422100000000042360000000004236000000000423831129000000000008900400000000037569320600000000000000009999123100000010000000000000BREQTLACNOR0135
012026022402ALLD3       010ALLIED      ON      NM   R$  000000000075400000000007680000000000751000000000075900000000007510000000000751000000000076306453000000000001014900000000000770977400000000000000009999123100000010000000000000BRALLDACNOR3110
012026022402ALOS3       010ALLOS       ON  ED  NM   R$  000000000319000000000032480000000003180000000000320600000000032040000000003197000000000320526823000000000007035500000000022556561600000000000000009999123100000010000000000000BRALOSACNOR5119
012026022402ALPA3       010ALPARGATAS  ON      N1   R$  000000000126000000000012600000000001227000000000124200000000012530000000001240000000000125300029000000000000004600000000000005716500000000000000009999123100000010000000000000BRALPAACNOR0234
012026022402BRAP3       010BRADESPAR   ON      N1   R$  000000000206300000000021200000000002063000000000209500000000021030000000002103000000000210700276000000000000057400000000000120253300000000000000009999123100000010000000000000BRBRAPACNOR5153
012026022402BRAP4       010BRADESPAR   PN      N1   R$  000000000243200000000024620000000002416000000000244700000000024480000000002448000000000245107061000000000002376700000000005817285700000000000000009999123100000010000000000000BRBRAPACNPR2153
012026022402CGRA4       010GRAZZIOTIN  PN           R$  000000000269800000000027480000000002698000000000272800000000027130000000002703000000000271900028000000000000003100000000000008459000000000000000009999123100000010000000000000BRCGRAACNPR9088
012026022402CLSC4       010CELESC      PN      N2   R$  000000001506700000000151490000000014900000000001502200000000150930000000015002000000001509300038000000000000004600000000000069102600000000000000009999123100000010000000000000BRCLSCACNPR3138
012026022402PLPL3       010PLANOEPLANO ON      NM   R$  000000000160000000000016280000000001588000000000160600000000016010000000001599000000000160302645000000000000584100000000000938444800000000000000009999123100000010000000000000BRPLPLACNOR5106
012026022402PNVL3       010DIMED       ON      NM   R$  000000000157000000000015990000000001546000000000157000000000015990000000001579000000000159904714000000000001271400000000001996452600000000000000009999123100000010000000000000BRPNVLACNOR9213
012026022402POMO3       010MARCOPOLO   ON      N2   R$  000000000063000000000006490000000000630000000000064300000000006490000000000642000000000064901128000000000000668300000000000429821700000000000000009999123100000010000000000000BRPOMOACNOR0105
012026022402POMO4       010MARCOPOLO   PN      N2   R$  000000000066400000000006860000000000660000000000067500000000006790000000000679000000000068118227000000000010026200000000006771199100000000000000009999123100000010000000000000BRPOMOACNPR7105
012026022402RAIZ4       010RAIZEN      PN      N2   R$  000000000006300000000000660000000000061000000000006300000000000650000000000065000000000006613955000000000059874800000000003800893400000000000000009999123100000010000000000000BRRAIZACNPR6112
012026022402SCAR3       010SAO CARLOS  ON      NM   R$  000000000150900000000015170000000001491000000000150200000000015070000000001494000000000151000151000000000000034300000000000051527900000000000000009999123100000010000000000000BRSCARACNOR7133
012026022402SANB11      010SANTANDER BRUNT          R$  000000000348100000000035790000000003462000000000352800000000035790000000003562000000000357914725000000000004711500000000016626337900000000000000009999123100000010000000000000BRSANBCDAM13172
012026022402SANB3       010SANTANDER BRON           R$  000000000173800000000017790000000001723000000000175600000000017780000000001766000000000178000349000000000000066000000000000115916900000000000000009999123100000010000000000000BRSANBACNOR8179
012026022402BIOM3       010BIOMM       ON      MA   R$  000000000061000000000006610000000000610000000000064200000000006490000000000643000000000064900273000000000000095900000000000061592700000000000000009999123100000010000000000000BRBIOMACNOR2113
012026022402MULT3       010MULTIPLAN   ON      N2   R$  000000000341700000000034870000000003409000000000346700000000034850000000003484000000000348923327000000000004638900000000016086090100000000000000009999123100000010000000000000BRMULTACNOR5145
012026022402PTBL3       010PORTOBELLO  ON      NM   R$  000000000033300000000003340000000000324000000000033100000000003330000000000333000000000033400244000000000000130600000000000043305100000000000000009999123100000010000000000000BRPTBLACNOR8132
012026022402PTNT3       010PETTENATI   ON           R$  000000000084500000000008500000000000845000000000084900000000008500000000000846000000000086900004000000000000001200000000000001018900000000000000009999123100000010000000000000BRPTNTACNOR6044
012026022402PTNT4       010PETTENATI   PN           R$  000000000084000000000008490000000000837000000000084500000000008400000000000841000000000084500036000000000000032400000000000027406200000000000000009999123100000010000000000000BRPTNTACNPR3049
012026022402BLAU3       010BLAU        ON      NM   R$  000000000113100000000011580000000001126000000000113300000000011580000000001153000000000115902183000000000001521800000000001724354900000000000000009999123100000010000000000000BRBLAUACNOR8120
012026022402BMEB3       010MERCANTIL   ON      N1   R$  000000000660000000000070000000000006594000000000675900000000067100000000006710000000000685000086000000000000015900000000000107468700000000000000009999123100000010000000000000BRBMEBACNOR8210
012026022402BMEB4       010MERCANTIL   PN      N1   R$  000000000780000000000081990000000007470000000000787000000000077000000000007556000000000771000480000000000000074600000000000587133300000000000000009999123100000010000000000000BRBMEBACNPR5215
012026022402CBAV3       010CBA         ON      NM   R$  000000000101900000000010230000000001017000000000101800000000010190000000001019000000000102203635000000000007558300000000007696307800000000000000009999123100000010000000000000BRCBAVACNOR5104
012026022402CBEE3       010AMPLA ENERG ON           R$  000000000105900000000010590000000001000000000000101900000000010000000000001000000000000105600003000000000000000300000000000000305900000000000000009999123100000010000000000000BRCBEEACNOR3163
012026022402CEAB3       010CEA MODAS   ON      NM   R$  000000000129900000000013000000000001240000000000126400000000012650000000001264000000000126518042000000000011382700000000014395474300000000000000009999123100000010000000000000BRCEABACNOR1105
012026022402CEBR3       010CEB         ON           R$  000000000308900000000031100000000003032000000000307000000000031100000000003081000000000325500014000000000000001700000000000005219300000000000000009999123100000010000000000000BRCEBRACNOR5129
012026022402CEBR5       010CEB         PNA          R$  000000000296000000000030000000000002960000000000298600000000030000000000002931000000000296900003000000000000000300000000000000896000000000000000009999123100000010000000000000BRCEBRACNPA8128
012026022402CEBR6       010CEB         PNB          R$  000000000320000000000032390000000003200000000000322200000000032250000000003150000000000322500008000000000000000800000000000002577800000000000000009999123100000010000000000000BRCEBRACNPB6128
012026022402CEEB3       010COELBA      ON           R$  000000000453500000000046010000000004535000000000456700000000045500000000004550000000000469900005000000000000000500000000000002283600000000000000009999123100000010000000000000BRCEEBACNOR3207
012026022402CGAS5       010COMGAS      PNA          R$  000000001330000000000133000000000013300000000001330000000000133000000000013300000000001345000002000000000000000300000000000003990000000000000000009999123100000010000000000000BRCGASACNPA3165
012026022402CGRA3       010GRAZZIOTIN  ON           R$  000000000280000000000028000000000002732000000000277700000000028000000000002753000000000280000003000000000000000300000000000000833200000000000000009999123100000010000000000000BRCGRAACNOR2088
012026022402CSNA3       010SID NACIONALON  ATZ      R$  000000000085300000000008710000000000850000000000085900000000008530000000000852000000000085320571000000000011964200000000010288169200000000000000009999123100000010000000000000BRCSNAACNOR6264
012026022402HYPE3       010HYPERA      ON      NM   R$  000000000237000000000024120000000002346000000000238100000000024100000000002401000000000241110377000000000003136200000000007470388400000000000000009999123100000010000000000000BRHYPEACNOR0150
012026022402ITUB3       010ITAUUNIBANCOON      N1   R$  000000000444300000000044930000000004435000000000447100000000044910000000004477000000000449206704000000000001647700000000007367113600000000000000009999123100000010000000000000BRITUBACNOR4365
012026022402ITUB4       010ITAUUNIBANCOPN      N1   R$  000000000476400000000048350000000004725000000000478600000000048170000000004817000000000481858529000000000038465900000000184101030500000000000000009999123100000010000000000000BRITUBACNPR1365
012026022402B3SA3       010B3          ON      NM   R$  000000000178700000000018320000000001780000000000181600000000018220000000001822000000000182349836000000000033547600000000060923801200000000000000009999123100000010000000000000BRB3SAACNOR6140
012026022402ADMF3       010CIABRASF    ON      NM   R$  000000000110100000000011010000000001101000000000110100000000011010000000001100000000000130000001000000000000000100000000000000110100000000000000009999123100000010000000000000BRADMFACNOR3101
012026022402AERI3       010AERIS       ON      NM   R$  000000000028600000000002860000000000279000000000028100000000002830000000000281000000000028300184000000000000054900000000000015465800000000000000009999123100000010000000000000BRAERIACNOR4102
012026022402AFLT3       010AFLUENTE T  ON           R$  000000000073000000000007350000000000730000000000073200000000007350000000000730000000000076300002000000000000000200000000000000146500000000000000009999123100000010000000000000BRAFLTACNOR1126
012026022402AGRO3       010BRASILAGRO  ON      NM   R$  000000000209200000000021590000000002088000000000212500000000021590000000002135000000000215900990000000000000168400000000000357996800000000000000009999123100000010000000000000BRAGROACNOR7116
012026022402NGRD3       010NEOGRID     ON      NM   R$  000000000266400000000026640000000002648000000000265400000000026480000000002648000000000265000020000000000000003900000000000010351500000000000000009999123100000010000000000000BRNGRDACNOR3106
012026022402NORD3       010NORDON MET  ON           R$  000000000041000000000004100000000000410000000000041000000000004100000000000412000000000045500001000000000000000100000000000000041000000000000000009999123100000010000000000000BRNORDACNOR7135
012026022402NUTR3       010NUTRIPLANT  ON      MA   R$  000000000025500000000002560000000000253000000000025400000000002530000000000253000000000025400015000000000000001700000000000000432600000000000000009999123100000010000000000000BRNUTRACNOR0104
012026022402OBTC3       010ORANJEBTC   ON           R$  000000000064200000000006670000000000628000000000064300000000006670000000000667000000000066801675000000000000439000000000000282384800000000000000009999123100000010000000000000BROBTCACNOR0100
012026022402ODPV3       010ODONTOPREV  ON      NM   R$  000000000123000000000012630000000001224000000000125200000000012610000000001260000000000126202742000000000001020100000000001277480400000000000000009999123100000010000000000000BRODPVACNOR4213
012026022402OFSA3       010OUROFINO S/AON      NM   R$  000000000237800000000024120000000002378000000000239300000000024000000000002332000000000240000006000000000000001000000000000002393700000000000000009999123100000010000000000000BROFSAACNOR7122
012026022402LAND3       010TERRASANTAPAON      NM   R$  000000000088800000000008890000000000862000000000088000000000008850000000000873000000000088500134000000000000035400000000000031178700000000000000009999123100000010000000000000BRLANDACNOR9104
012026022402LAVV3       010LAVVI       ON      NM   R$  000000000188700000000018950000000001869000000000187800000000018770000000001877000000000188302617000000000000521200000000000978869800000000000000009999123100000010000000000000BRLAVVACNOR4120
012026022402LEVE3       010METAL LEVE  ON      NM   R$  000000000358400000000036910000000003584000000000366200000000036900000000003665000000000369002668000000000000402100000000001472733900000000000000009999123100000010000000000000BRLEVEACNOR2202
012026022402MOVI3       010MOVIDA      ON      NM   R$  000000000137200000000014970000000001361000000000146200000000014830000000001480000000000148313120000000000008043200000000011764889200000000000000009999123100000010000000000000BRMOVIACNOR0126
012026022402MRVE3       010MRV         ON      NM   R$  000000000102800000000010440000000001023000000000103500000000010350000000001034000000000103515669000000000007330800000000007591930400000000000000009999123100000010000000000000BRMRVEACNOR2128
012026022402PRNR3       010PRINER      ON      NM   R$  000000000217200000000022000000000002163000000000217800000000021850000000002166000000000218601893000000000000379900000000000827433500000000000000009999123100000010000000000000BRPRNRACNOR4111
012026022402PSSA3       010PORTO SEGUROON      NM   R$  000000000518700000000052690000000005129000000000520800000000052570000000005255000000000526512187000000000001998900000000010411251900000000000000009999123100000010000000000000BRPSSAACNOR7161
012026022402HAGA3       010HAGA S/A    ON           R$  000000000019900000000002000000000000199000000000019900000000001990000000000205000000000022200005000000000000001900000000000000378400000000000000009999123100000010000000000000BRHAGAACNOR7103
012026022402HAGA4       010HAGA S/A    PN           R$  000000000013500000000001360000000000135000000000013500000000001360000000000131000000000013400003000000000000000400000000000000054300000000000000009999123100000010000000000000BRHAGAACNPR4103
012026022402HAPV3       010HAPVIDA     ON      NM   R$  000000000101300000000010490000000001008000000000103000000000010490000000001046000000000104915040000000000011031900000000011365641600000000000000009999123100000010000000000000BRHAPVACNOR4119
012026022402ISAE3       010ISA ENERGIA ON      N1   R$  000000000352500000000035270000000003525000000000352600000000035270000000003507000000000352700012000000000000003400000000000011990200000000000000009999123100000010000000000000BRISAEACNOR2108
012026022402ISAE4       010ISA ENERGIA PN      N1   R$  000000000295500000000030250000000002939000000000299400000000029960000000002996000000000300010628000000000004559000000000013649696300000000000000009999123100000010000000000000BRISAEACNPR9108
012026022402GRND3       010GRENDENE    ON      NM   R$  000000000049200000000004990000000000491000000000049600000000004980000000000497000000000049807966000000000003359400000000001668241300000000000000009999123100000010000000000000BRGRNDACNOR3182
012026022402SEER3       010SER EDUCA   ON      NM   R$  000000000127100000000012730000000001248000000000125900000000012600000000001259000000000126604081000000000000939500000000001183743900000000000000009999123100000010000000000000BRSEERACNOR5120
012026022402SEQL3       010SEQUOIA LOG ON      NM   R$  000000000004000000000000430000000000039000000000004000000000000390000000000039000000000004000990000000000001004600000000000040706600000000000000009999123100000010000000000000BRSEQLACNOR2108
012026022402SHOW3       010TIME FOR FUNON      NM   R$  000000000047000000000004850000000000432000000000045900000000004700000000000469000000000048000391000000000000094100000000000043280600000000000000009999123100000010000000000000BRSHOWACNOR7106
012026022402SHUL4       010SCHULZ      PN           R$  000000000056100000000005690000000000560000000000056500000000005660000000000563000000000056600396000000000000259700000000000146823700000000000000009999123100000010000000000000BRSHULACNPR4163
012026022402SIMH3       010SIMPAR      ON  EG  NM   R$  000000000136900000000014450000000001360000000000141900000000014110000000001410000000000141106358000000000003494400000000004959636200000000000000009999123100000010000000000000BRSIMHACNOR0110
012026022402SLCE3       010SLC AGRICOLAON      NM   R$  000000000161700000000016340000000001598000000000162000000000016340000000001628000000000163405188000000000001515200000000002455070600000000000000009999123100000010000000000000BRSLCEACNOR2128
012026022402SNSY5       010SANSUY      PNA          R$  000000000026700000000002710000000000251000000000025400000000002520000000000252000000000026900013000000000000004200000000000001069700000000000000009999123100000010000000000000BRSNSYACNPA5111
012026022402SOJA3       010BOA SAFRA   ON      NM   R$  000000000083200000000008570000000000832000000000084800000000008570000000000855000000000085701939000000000001869000000000001586646300000000000000009999123100000010000000000000BRSOJAACNOR9109
012026022402IFCM3       010INFRACOMM   ON      NM   R$  000000000005500000000000710000000000054000000000006100000000000650000000000062000000000006500845000000000001668100000000000102784100000000000000009999123100000010000000000000BRIFCMACNOR8109
012026022402IGTI11      010IGUATEMI S.AUNT ED  N1   R$  000000000293300000000029580000000002912000000000293900000000029430000000002942000000000294317957000000000004633600000000013622778600000000000000009999123100000010000000000000BRIGTICDAM16109
012026022402IGTI3       010IGUATEMI S.AON  ED  N1   R$  000000000033700000000003400000000000331000000000033500000000003400000000000333000000000034000061000000000000072400000000000024321200000000000000009999123100000010000000000000BRIGTIACNOR8109
012026022402INEP3       010INEPAR      ON           R$  000000000012400000000001390000000000117000000000013000000000001300000000000130000000000013100521000000000000476800000000000062228700000000000000009999123100000010000000000000BRINEPACNOR1145
012026022402INEP4       010INEPAR      PN           R$  000000000011500000000001200000000000110000000000011400000000001170000000000114000000000011700053000000000000060600000000000006962400000000000000009999123100000010000000000000BRINEPACNPR8145
012026022402INTB3       010INTELBRAS   ON      NM   R$  000000000130500000000013570000000001302000000000133600000000013550000000001352000000000135507677000000000002397000000000003204742600000000000000009999123100000010000000000000BRINTBACNOR9115
012026022402JALL3       010JALLESMACHADON      NM   R$  000000000030700000000003160000000000305000000000031000000000003130000000000313000000000031401288000000000001375800000000000427308700000000000000009999123100000010000000000000BRJALLACNOR0106
012026022402SANB4       010SANTANDER BRPN           R$  000000000174400000000017800000000001743000000000176500000000017800000000001767000000000178000445000000000000161600000000000285233400000000000000009999123100000010000000000000BRSANBACNPR5179
012026022402GOLL54      010GOL         PN *P        R$  000000000112100000000011300000000001121000000000112500000000011250000000001125000000000112700245000000000017601000000000000019802908000000000000009999123100010000000000000000BRGOLLA01PR5100
012026022402RENT3       010LOCALIZA    ON      NM   R$  000000000515400000000052370000000005140000000000519400000000052050000000005200000000000520625835000000000006249000000000032458185400000000000000009999123100000010000000000000BRRENTACNOR4205
012026022402RENT4       010LOCALIZA    PN      NM   R$  000000000497700000000050680000000004977000000000502500000000050070000000005007000000000503900723000000000000106700000000000536214300000000000000009999123100000010000000000000BRRENTACNPR1100
012026022402SMFT3       010SMART FIT   ON      NM   R$  000000000208800000000021310000000002085000000000211500000000021270000000002125000000000212918692000000000009340900000000019756938500000000000000009999123100000010000000000000BRSMFTACNOR1118
012026022402EZTC3       010EZTEC       ON      NM   R$  000000000161500000000016520000000001581000000000160300000000015810000000001581000000000158307575000000000003295400000000005284044100000000000000009999123100000010000000000000BREZTCACNOR0132
012026022402BIED3       010BIOMA EDUC  ON      MA   R$  000000000052700000000006000000000000524000000000055600000000005410000000000502000000000054100038000000000000011100000000000006179900000000000000009999123100000010000000000000BRBIEDACNOR2101
012026022402BMGB4       010BANCO BMG   PN      N1   R$  000000000048000000000004900000000000480000000000048600000000004830000000000483000000000048801346000000000001532600000000000745318600000000000000009999123100000010000000000000BRBMGBACNPR0118
012026022402BMIN4       010MERC INVEST PN           R$  000000000185800000000019000000000001858000000000188600000000019000000000001803000000000190000002000000000000000300000000000000565800000000000000009999123100000010000000000000BRBMINACNPR1177
012026022402BMKS3       010BIC MONARK  ON           R$  000000003759900000000375990000000037000000000003706300000000370000000000037050000000003750900023000000000000000160000000000005930135000000000000009999123100000010000000000000BRBMKSACNOR9169
012026022402BMOB3       010BEMOBI TECH ON      NM   R$  000000000246000000000024860000000002448000000000246800000000024820000000002480000000000248201171000000000000240400000000000593478800000000000000009999123100000010000000000000BRBMOBACNOR7107
012026022402BNBR3       010NORD BRASIL ON           R$  000000001220000000000122000000000012150000000001217500000000121500000000012150000000001220000002000000000000000200000000000002435000000000000000009999123100000010000000000000BRBNBRACNOR8211
012026022402BPAC11      010BTGP BANCO  UNT     N2   R$  000000000609900000000061260000000006003000000000607100000000061150000000006115000000000611935087000000000008188300000000049717547000000000000000009999123100000010000000000000BRBPACUNT006128
012026022402BPAC3       010BTGP BANCO  ON      N2   R$  000000000450000000000045230000000004401000000000446300000000044960000000004480000000000465000031000000000000003300000000000014729100000000000000009999123100000010000000000000BRBPACACNOR7139
012026022402BPAC5       010BTGP BANCO  PNA     N2   R$  000000000113300000000011510000000001125000000000113100000000011510000000001151000000000115200043000000000000006400000000000007238500000000000000009999123100000010000000000000BRBPACACNPA0139
012026022402BGIP3       010BANESE      ON           R$  000000000530100000000053010000000005250000000000527500000000052500000000005250000000000540700002000000000000000200000000000001055100000000000000009999123100000010000000000000BRBGIPACNOR1215
012026022402BGIP4       010BANESE      PN           R$  000000000350000000000035000000000003421000000000348400000000035000000000003451000000000350000005000000000000000500000000000001742000000000000000009999123100000010000000000000BRBGIPACNPR8215
012026022402BHIA3       010CASAS BAHIA ON      NM   R$  000000000029700000000003000000000000294000000000029600000000002940000000000294000000000029503271000000000003117600000000000924933700000000000000009999123100000010000000000000BRBHIAACNOR1104
012026022402BRST3       010BRISANET    ON      NM   R$  000000000032000000000003310000000000318000000000032400000000003310000000000325000000000033200877000000000000333700000000000108393600000000000000009999123100000010000000000000BRBRSTACNOR9102
012026022402BSLI3       010BRB BANCO   ON           R$  000000000047900000000005000000000000461000000000047900000000004790000000000477000000000049200085000000000000034000000000000016308600000000000000009999123100000010000000000000BRBSLIACNOR5198
012026022402BSLI4       010BRB BANCO   PN           R$  000000000047600000000004900000000000461000000000048000000000004810000000000481000000000048600074000000000000029000000000000013938500000000000000009999123100000010000000000000BRBSLIACNPR2198
012026022402CAMB3       010CAMBUCI     ON           R$  000000000094000000000009750000000000940000000000096100000000009750000000000963000000000097400104000000000000024100000000000023175300000000000000009999123100000010000000000000BRCAMBACNOR4136
012026022402CAML3       010CAMIL       ON      NM   R$  000000000068200000000006990000000000681000000000069300000000006990000000000695000000000069901260000000000000708300000000000491167500000000000000009999123100000010000000000000BRCAMLACNOR3134
012026022402CASH3       010MELIUZ      ON      NM   R$  000000000034500000000003560000000000340000000000034700000000003550000000000353000000000035501494000000000001284100000000000445869700000000000000009999123100000010000000000000BRCASHACNOR8107
012026022402CSED3       010CRUZEIRO EDUON      NM   R$  000000000068600000000007000000000000685000000000069200000000007000000000000693000000000070000751000000000000206700000000000143146200000000000000009999123100000010000000000000BRCSEDACNOR9107
012026022402CSMG3       010COPASA      ON      NM   R$  000000000589200000000059330000000005678000000000575900000000057220000000005721000000000572320040000000000004465500000000025719682300000000000000009999123100000010000000000000BRCSMGACNOR5183
012026022402EKTR4       010ELEKTRO     PN           R$  000000000399900000000040100000000003997000000000400200000000040100000000003751000000000401100003000000000000000300000000000001200600000000000000009999123100000010000000000000BREKTRACNPR7174
012026022402EMAE4       010EMAE        PN           R$  000000000472900000000048000000000004500000000000473500000000048000000000004710000000000480000065000000000000016800000000000079556100000000000000009999123100000010000000000000BREMAEACNPR1128
012026022402EMBJ3       010EMBRAER     ON      NM   R$  000000000942900000000095490000000009300000000000942500000000094300000000009413000000000943018654000000000003657300000000034472764000000000000000009999123100000010000000000000BREMBJACNOR1102
012026022402IBOV11      010IBOVESPA    IBO/         R$  000001913390000000191339000000019133900000001913390000000191339000000000000000000000000000000007000000000000010099000000001932332561000000000000009999123100001000000000000000BRIBOVINDM18016
012026022402AZEV3       010AZEVEDO     ON           R$  000000000002500000000000260000000000024000000000002500000000000250000000000024000000000002500119000000000000393300000000000009853900000000000000009999123100000010000000000000BRAZEVACNOR0123
012026022402AZEV4       010AZEVEDO     PN           R$  000000000002000000000000200000000000019000000000001900000000000190000000000019000000000002000352000000000004071100000000000077590600000000000000009999123100000010000000000000BRAZEVACNPR7123
012026022402AZTE3       010AZT ENERGIA ON           R$  000000000003000000000000330000000000029000000000003000000000000290000000000029000000000003001415000000000007056900000000000217644100000000000000009999123100000010000000000000BRAZTEACNOR4101
012026022402AZUL53      010AZUL        ON  P   N2   R$  000000002640000000000267220000000019901000000002140000000000208990000000020800000000002089902313000000025458000000000000000547336578000000000000009999123110000000000000000000BRAZULA01OR8102
012026022402AZZA3       010AZZAS 2154  ON      NM   R$  000000000261700000000026690000000002605000000000264700000000026520000000002651000000000265208120000000000001859800000000004923497200000000000000009999123100000010000000000000BRAZZAACNOR9104
012026022402ANIM3       010ANIMA       ON      NM   R$  000000000048600000000005150000000000486000000000050200000000005130000000000511000000000051313556000000000009392200000000004715251800000000000000009999123100000010000000000000BRANIMACNOR6110
012026022402ARML3       010ARMAC       ON      NM   R$  000000000057000000000006180000000000570000000000060400000000006110000000000611000000000061202839000000000001538400000000000930508500000000000000009999123100000010000000000000BRARMLACNOR1117
012026022402ARND3       010ARANDU      ON      NM   R$  000000000007500000000000750000000000075000000000007500000000000750000000000075000000000008800004000000000000000500000000000000037500000000000000009999123100000010000000000000BRARNDACNOR6100
012026022402ASAI3       010ASSAI       ON      NM   R$  000000000093200000000009870000000000929000000000097100000000009790000000000979000000000098031568000000000014932600000000014501423900000000000000009999123100000010000000000000BRASAIACNOR0109
012026022402EGIE3       010ENGIE BRASILON      NM   R$  000000000337500000000034660000000003372000000000342800000000034180000000003417000000000341809681000000000001731500000000005935754200000000000000009999123100000010000000000000BREGIEACNOR9132
012026022402BAZA3       010AMAZONIA    ON           R$  000000000882000000000088970000000008750000000000880000000000088240000000008820000000000882500055000000000000007700000000000067760400000000000000009999123100000010000000000000BRBAZAACNOR0180
012026022402BBAS3       010BRASIL      ON  ERJ NM   R$  000000000267700000000027380000000002666000000000270600000000027120000000002711000000000271337346000000000026761400000000072438794600000000000000009999123100000010000000000000BRBBASACNOR3335
012026022402BRAV3       010BRAVA       ON      NM   R$  000000000185600000000018910000000001836000000000187400000000018730000000001873000000000187711892000000000006459400000000012107142900000000000000009999123100000010000000000000BRBRAVACNOR3103
012026022402CMIN3       010CSNMINERACAOON      N2   R$  000000000053300000000005500000000000531000000000054200000000005410000000000540000000000054121149000000000011895500000000006452703600000000000000009999123100000010000000000000BRCMINACNOR2116
012026022402CURY3       010CURY S/A    ON      NM   R$  000000000403900000000040690000000003973000000000400400000000039950000000003992000000000400519933000000000003853700000000015432019300000000000000009999123100000010000000000000BRCURYACNOR3116
012026022402CVCB3       010CVC BRASIL  ON      NM   R$  000000000024200000000002460000000000233000000000023700000000002370000000000236000000000023707018000000000018027900000000004278008300000000000000009999123100000010000000000000BRCVCBACNOR1118
012026022402ENGI11      010ENERGISA    UNT     N2   R$  000000000536800000000054730000000005349000000000542500000000054430000000005442000000000544414793000000000002983400000000016187098100000000000000009999123100000010000000000000BRENGICDAM16140
012026022402UCAS3       010UNICASA     ON      NM   R$  000000000014100000000001420000000000137000000000013900000000001400000000000140000000000014100078000000000000025200000000000003518400000000000000009999123100000010000000000000BRUCASACNOR1114
012026022402UGPA3       010ULTRAPAR    ON      NM   R$  000000000276300000000028000000000002741000000000277000000000027630000000002762000000000277926546000000000008828000000000024458524900000000000000009999123100000010000000000000BRUGPAACNOR8159
012026022402BEEF3       010MINERVA     ON      NM   R$  000000000055600000000005560000000000525000000000053400000000005390000000000538000000000053937119000000000044342100000000023683562800000000000000009999123100000010000000000000BRBEEFACNOR6120
012026022402BRKM3       010BRASKEM     ON      N1   R$  000000000090100000000009150000000000899000000000090400000000009030000000000903000000000090700037000000000000004900000000000004433900000000000000009999123100000010000000000000BRBRKMACNOR1119
012026022402BRKM5       010BRASKEM     PNA     N1   R$  000000000095100000000009580000000000937000000000094800000000009540000000000952000000000095408373000000000003282900000000003113896200000000000000009999123100000010000000000000BRBRKMACNPA4123
012026022402BRSR3       010BANRISUL    ON      N1   R$  000000000199000000000020100000000001967000000000198500000000019760000000001953000000000199900082000000000000011200000000000022238300000000000000009999123100000010000000000000BRBRSRACNOR3197
012026022402BRSR5       010BANRISUL    PNA     N1   R$  000000000196700000000019670000000001967000000000196700000000019670000000001900000000000204900001000000000000000200000000000000393400000000000000009999123100000010000000000000BRBRSRACNPA6201
012026022402BRSR6       010BANRISUL    PNB     N1   R$  000000000188600000000019040000000001864000000000188400000000018870000000001887000000000188804240000000000001697700000000003199502600000000000000009999123100000010000000000000BRBRSRACNPB4200
012026022402CPLE3       010COPEL       ON      NM   R$  000000000144000000000015080000000001437000000000148400000000014870000000001485000000000148743779000000000034355700000000051005624400000000000000009999123100000010000000000000BRCPLEACNOR8153
012026022402CRPG5       010CRISTAL     PNA          R$  000000000202800000000020280000000002006000000000201700000000020060000000001951000000000200600002000000000000000200000000000000403400000000000000009999123100000010000000000000BRCRPGACNPA3119
012026022402YDUQ3       010YDUQS PART  ON      NM   R$  000000000133000000000014060000000001320000000000138100000000013960000000001395000000000139809317000000000003494900000000004829259000000000000000009999123100000010000000000000BRYDUQACNOR3108
012026022402WEST3       010WESTWING    ON      NM   R$  000000000059600000000005970000000000586000000000059600000000005970000000000590000000000060000024000000000000020300000000000012115200000000000000009999123100000010000000000000BRWESTACNOR3101
012026022402WHRL3       010WHIRLPOOL   ON           R$  000000000044500000000004600000000000445000000000044900000000004450000000000444000000000044500032000000000000010400000000000004673500000000000000009999123100000010000000000000BRWHRLACNOR5135
012026022402CSAN3       010COSAN       ON  ATZ NM   R$  000000000066800000000006900000000000661000000000068000000000006800000000000679000000000068237037000000000038210900000000026003611500000000000000009999123100000010000000000000BRCSANACNOR6129
012026022402DEXP3       010DEXXOS PAR  ON      N1   R$  000000000076000000000007660000000000752000000000075600000000007540000000000754000000000075900631000000000000135800000000000102790700000000000000009999123100000010000000000000BRDEXPACNOR1109
012026022402DEXP4       010DEXXOS PAR  PN      N1   R$  000000000075300000000007650000000000753000000000075900000000007580000000000755000000000076200019000000000000003400000000000002581900000000000000009999123100000010000000000000BRDEXPACNPR8109
012026022402DIRR3       010DIRECIONAL  ON      NM   R$  000000000166000000000016880000000001649000000000166500000000016490000000001649000000000165919340000000000004895900000000008154854500000000000000009999123100000010000000000000BRDIRRACNOR0123
012026022402DMVF3       010D1000VFARMA ON      NM   R$  000000000069500000000007350000000000692000000000071400000000007300000000000722000000000073000349000000000000121500000000000086813100000000000000009999123100000010000000000000BRDMVFACNOR9100
012026022402WHRL4       010WHIRLPOOL   PN           R$  000000000048500000000004870000000000471000000000047600000000004780000000000474000000000047900018000000000000004800000000000002288400000000000000009999123100000010000000000000BRWHRLACNPR2135
012026022402WIZC3       010WIZ CO      ON      NM   R$  000000000090800000000009180000000000894000000000090800000000009130000000000912000000000091901541000000000000448400000000000407589600000000000000009999123100000010000000000000BRWIZCACNOR5104
012026022402WLMM4       010WLM IND COM PN           R$  000000000253700000000026100000000002449000000000251000000000024490000000002300000000000245000050000000000000009800000000000024602300000000000000009999123100000010000000000000BRWLMMACNPR3125
012026022402SOND6       010SONDOTECNICAPNB          R$  000000000561000000000056100000000005610000000000561000000000056100000000005610000000000800000002000000000000000200000000000001122000000000000000009999123100000010000000000000BRSONDACNPB6168
012026022402DOTZ3       010DOTZ SA     ON      NM   R$  000000000030600000000003060000000000292000000000029800000000002980000000000296000000000029800041000000000000008200000000000002444600000000000000009999123100000010000000000000BRDOTZACNOR7101
012026022402DXCO3       010DEXCO       ON      NM   R$  000000000056600000000005740000000000566000000000056900000000005730000000000570000000000057303913000000000002543800000000001449733400000000000000009999123100000010000000000000BRDXCOACNOR8108
012026022402VVEO3       010VIVEO       ON      NM   R$  000000000016800000000001740000000000163000000000017000000000001740000000000174000000000017501958000000000002530100000000000430845300000000000000009999123100000010000000000000BRVVEOACNOR0104
012026022402EALT3       010ACO ALTONA  ON           R$  000000000144900000000014560000000001449000000000145400000000014520000000001452000000000145600007000000000000001800000000000002617700000000000000009999123100000010000000000000BREALTACNOR4140
012026022402EALT4       010ACO ALTONA  PN           R$  000000000147800000000014780000000001427000000000145100000000014270000000001421000000000146900091000000000000013600000000000019739300000000000000009999123100000010000000000000BREALTACNPR1140
012026022402ECOR3       010ECORODOVIAS ON      NM   R$  000000000106700000000010900000000001063000000000108300000000010830000000001081000000000108306161000000000002955200000000003202574900000000000000009999123100000010000000000000BRECORACNOR8122
012026022402WDCN3       010WDC NETWORKSON      NM   R$  000000000026100000000002610000000000252000000000025400000000002570000000000255000000000025700066000000000000031100000000000007923400000000000000009999123100000010000000000000BRWDCNACNOR2100
012026022402WEGE3       010WEG         ON      NM   R$  000000000519700000000052210000000005123000000000516800000000051410000000005140000000000514137401000000000011974100000000061890884000000000000000009999123100000010000000000000BRWEGEACNOR0234
012026022402VIVR3       010VIVER       ON  ES  NM   R$  000000000005500000000000560000000000042000000000004600000000000470000000000047000000000004800746000000000000720600000000000033652300000000000000009999123100000010000000000000BRVIVRACNOR4126
012026022402VIVT3       010TELEF BRASILON  EJ       R$  000000000422300000000042800000000004166000000000424600000000042520000000004252000000000426923758000000000004669600000000019830552700000000000000009999123100000010000000000000BRVIVTACNOR0200
012026022402VLID3       010VALID       ON      NM   R$  000000000223500000000022920000000002214000000000226700000000022730000000002272000000000228000967000000000000164500000000000373021900000000000000009999123100000010000000000000BRVLIDACNOR5148
012026022402FLRY3       010FLEURY      ON      NM   R$  000000000176400000000017890000000001750000000000176400000000017600000000001760000000000176508729000000000002138800000000003774794700000000000000009999123100000010000000000000BRFLRYACNOR5143
012026022402FRAS3       010FRAS-LE     ON      N1   R$  000000000242000000000025080000000002403000000000244600000000024230000000002423000000000245201609000000000000285000000000000697371800000000000000009999123100000010000000000000BRFRASACNOR0163
012026022402VSTE3       010VESTE       ON      NM   R$  000000000040700000000004070000000000390000000000039600000000003980000000000391000000000039700010000000000000004200000000000001665700000000000000009999123100000010000000000000BRVSTEACNOR5104
012026022402VTRU3       010VITRUEDUCA  ON      NM   R$  000000000150300000000015810000000001503000000000154600000000015490000000001549000000000155502891000000000000467600000000000723283200000000000000009999123100000010000000000000BRVTRUACNOR3101
012026022402VULC3       010VULCABRAS   ON      NM   R$  000000000191000000000019240000000001904000000000191600000000019130000000001913000000000191403597000000000000993800000000001904362200000000000000009999123100000010000000000000BRVULCACNOR2181
012026022402VALE3       010VALE        ON  ATZ NM   R$  000000000874000000000088710000000008740000000000881300000000087730000000008772000000000878054844000000000019760700000000174153660100000000000000009999123100000010000000000000BRVALEACNOR0219
012026022402TOKY3       010GRUPO TOKY  ON      NM   R$  000000000005700000000000580000000000055000000000005600000000000550000000000055000000000005600120000000000000357600000000000020305200000000000000009999123100000010000000000000BRTOKYACNOR5101
012026022402TOTS3       010TOTVS       ON      NM   R$  000000000385000000000038940000000003721000000000382300000000038360000000003834000000000383828470000000000008165500000000031223618900000000000000009999123100000010000000000000BRTOTSACNOR8150
012026022402TPIS3       010TRIUNFO PARTON      NM   R$  000000000065100000000006660000000000636000000000065500000000006580000000000635000000000065900260000000000000048700000000000031924800000000000000009999123100000010000000000000BRTPISACNOR8120
012026022402TRAD3       010TC          ON      NM   R$  000000000026100000000002630000000000255000000000025800000000002570000000000256000000000026000075000000000000038900000000000010071300000000000000009999123100000010000000000000BRTRADACNOR3102
012026022402VITT3       010VITTIA      ON      NM   R$  000000000039900000000004070000000000391000000000039900000000004020000000000402000000000040501040000000000000267800000000000106887800000000000000009999123100000010000000000000BRVITTACNOR4113
012026022402VIVA3       010VIVARA S.A. ON      NM   R$  000000000303200000000032000000000003016000000000314400000000031900000000003190000000000319318416000000000004556100000000014324817600000000000000009999123100000010000000000000BRVIVAACNOR0109
012026022402VBBR3       010VIBRA       ON      NM   R$  000000000304100000000031640000000003030000000000311700000000031000000000003099000000000310036736000000000012314800000000038396822100000000000000009999123100000010000000000000BRVBBRACNOR1114
012026022402UNIP3       010UNIPAR      ON           R$  000000000630400000000064580000000006304000000000637800000000063300000000006307000000000645600067000000000000011100000000000070798600000000000000009999123100000010000000000000BRUNIPACNOR7210
012026022402UNIP5       010UNIPAR      PNA          R$  000000000670200000000069980000000006702000000000693500000000069800000000006900000000000714400005000000000000000500000000000003467500000000000000009999123100000010000000000000BRUNIPACNPA0212
012026022402UNIP6       010UNIPAR      PNB          R$  000000000695100000000072220000000006921000000000712200000000071000000000007090000000000710101992000000000000307900000000002193149800000000000000009999123100000010000000000000BRUNIPACNPB8210
012026022402USIM3       010USIMINAS    ON      N1   R$  000000000063400000000006640000000000634000000000065500000000006540000000000654000000000066001589000000000000688800000000000451230700000000000000009999123100000010000000000000BRUSIMACNOR3167
012026022402USIM5       010USIMINAS    PNA     N1   R$  000000000063500000000006610000000000631000000000065200000000006530000000000652000000000065317199000000000018102700000000011815878600000000000000009999123100000010000000000000BRUSIMACNPA6172
012026022402VAMO3       010VAMOS       ON      NM   R$  000000000045400000000004940000000000453000000000048100000000004820000000000482000000000048314403000000000018596100000000008951524100000000000000009999123100000010000000000000BRVAMOACNOR7109
012026022402QUAL3       010QUALICORP   ON      NM   R$  000000000025200000000002610000000000250000000000025600000000002560000000000256000000000025901629000000000002672700000000000685736100000000000000009999123100000010000000000000BRQUALACNOR6122
012026022402RPAD5       010ALFA HOLDINGPNA          R$  000000000063000000000006300000000000630000000000063000000000006300000000000624000000000064000001000000000000001000000000000000630000000000000000009999123100000010000000000000BRRPADACNPA4222
012026022402RSUL4       010RIOSULENSE  PN           R$  000000000690000000000070230000000006810000000000690900000000069670000000006750000000000696800011000000000000001100000000000007600700000000000000009999123100000010000000000000BRRSULACNPR3116
012026022402RVEE3       010REVEE       ON      NM   R$  000000000017000000000001700000000000170000000000017000000000001700000000000172000000000019500001000000000000000100000000000000017000000000000000009999123100000010000000000000BRRVEEACNOR9102
012026022402CMIG3       010CEMIG       ON      N1   R$  000000000155200000000015960000000001552000000000157800000000015750000000001575000000000158400427000000000000092400000000000145895200000000000000009999123100000010000000000000BRCMIGACNOR6251
012026022402CMIG4       010CEMIG       PN      N1   R$  000000000119600000000012200000000001188000000000121100000000012170000000001217000000000121830036000000000013005800000000015759444800000000000000009999123100000010000000000000BRCMIGACNPR3252
012026022402CSUD3       010CSU DIGITAL ON      NM   R$  000000000191200000000019250000000001885000000000189800000000018950000000001895000000000190500422000000000000061700000000000117158800000000000000009999123100000010000000000000BRCSUDACNOR5117
012026022402ENEV3       010ENEVA       ON      NM   R$  000000000219000000000022550000000002166000000000221800000000022070000000002205000000000220733649000000000012812300000000028423253200000000000000009999123100000010000000000000BRENEVACNOR8107
012026022402GPAR3       010CELGPAR     ON           R$  000000000140500000000014050000000001405000000000140500000000014050000000001090000000000250000001000000000000000100000000000000140500000000000000009999123100000010000000000000BRGPARACNOR4110
012026022402MDIA3       010M.DIASBRANCOON  ED  NM   R$  000000000253600000000026200000000002533000000000259400000000026080000000002606000000000261603289000000000000683500000000001773413100000000000000009999123100000010000000000000BRMDIAACNOR7151
012026022402MDNE3       010MOURA DUBEUXON      NM   R$  000000000331900000000033890000000003230000000000330300000000033410000000003331000000000334108098000000000001827100000000006035058300000000000000009999123100000010000000000000BRMDNEACNOR9104
012026022402MEAL3       010IMC S/A     ON      NM   R$  000000000012300000000001260000000000122000000000012300000000001240000000000123000000000012400113000000000000263000000000000032473000000000000000009999123100000010000000000000BRMEALACNOR9105
012026022402MELK3       010MELNICK     ON      NM   R$  000000000040400000000004080000000000398000000000040200000000004080000000000406000000000040801724000000000000551500000000000222129200000000000000009999123100000010000000000000BRMELKACNOR8116
012026022402MGEL4       010MANGELS INDLPN           R$  000000000062000000000006380000000000620000000000062300000000006370000000000625000000000063600005000000000000001100000000000000685600000000000000009999123100000010000000000000BRMGELACNPR3147
012026022402MGLU3       010MAGAZ LUIZA ON      NM   R$  000000000104500000000010540000000001010000000000103200000000010130000000001013000000000101420469000000000019247800000000019876199300000000000000009999123100000010000000000000BRMGLUACNOR2130
012026022402RIAA3       010RIACHUELO   ON      NM   R$  000000000105300000000010580000000001023000000000103400000000010230000000001023000000000103006033000000000002619500000000002709967500000000000000009999123100000010000000000000BRRIAAACNOR2100
012026022402RNEW3       010RENOVA      ON      N2   R$  000000000012400000000001260000000000116000000000012000000000001170000000000117000000000011900416000000000000152700000000000018412400000000000000009999123100000010000000000000BRRNEWACNOR8113
012026022402RNEW4       010RENOVA      PN      N2   R$  000000000009800000000001110000000000098000000000010600000000001080000000000103000000000010700154000000000000211400000000000022418500000000000000009999123100000010000000000000BRRNEWACNPR5113
012026022402ROMI3       010ROMI        ON      NM   R$  000000000082500000000008310000000000823000000000082600000000008240000000000824000000000083000719000000000000218000000000000180187500000000000000009999123100000010000000000000BRROMIACNOR8201
012026022407RIOS3       010RIO ALTO    ON           R$  000000000305000000000030500000000003050000000000305000000000030500000000000100000000000335000001000000000000000100000000000000305000000000000000009999123100000010000000000000BRRIOSACNOR5101
012026022408OIBR3       010OI          ON      N1   R$  000000000001800000000000180000000000018000000000001800000000000180000000000017000000000001800143000000000000459400000000000008269200000000000000009999123100000010000000000000BROIBRACNOR1112
012026022408OIBR4       010OI          PN      N1   R$  000000000014900000000001490000000000149000000000014900000000001490000000000147000000000015000005000000000000000800000000000000119200000000000000009999123100000010000000000000BROIBRACNPR8111
012026022408OSXB3       010OSX BRASIL  ON      NM   R$  000000000017500000000001750000000000175000000000017500000000001750000000000175000000000018600003000000000000000400000000000000070000000000000000009999123100000010000000000000BROSXBACNOR8109
012026022408AMBP3       010AMBIPAR     ON      NM   R$  000000000002600000000000270000000000025000000000002500000000000260000000000025000000000002600969000000000013672800000000000355188500000000000000009999123100000010000000000000BRAMBPACNOR6105
012026022408AMER3       010AMERICANAS  ON      NM   R$  000000000056900000000005770000000000566000000000057100000000005670000000000567000000000057101399000000000000936900000000000535142600000000000000009999123100000010000000000000BRAMERACNOR6103
012026022408AGXY3       010AGROGALAXY  ON      NM   R$  000000000024200000000002460000000000238000000000024000000000002400000000000236000000000024000125000000000000021600000000000005205100000000000000009999123100000010000000000000BRAGXYACNOR4104
012026022408BOBR4       010BOMBRIL     PN           R$  000000000012900000000001290000000000129000000000012900000000001290000000000122000000000012900006000000000000001000000000000000129000000000000000009999123100000010000000000000BRBOBRACNPR3128
012026022408PMAM3       010PARANAPANEMAON  ES  NM   R$  000000000006800000000000690000000000067000000000006700000000000670000000000067000000000006800375000000000001120900000000000076062700000000000000009999123100000010000000000000BRPMAMACNOR3046
012026022408HOOT4       010HOTEIS OTHONPN           R$  000000000070900000000007090000000000699000000000070100000000006990000000000699000000000070600006000000000000001500000000000001051700000000000000009999123100000010000000000000BRHOOTACNPR9015
012026022408NEXP3       010NEXPE       ON           R$  000000000028300000000002830000000000280000000000028100000000002820000000000278000000000028200011000000000000004900000000000001376900000000000000009999123100000010000000000000BRNEXPACNOR0101
012026022408LIGT3       010LIGHT S/A   ON      NM   R$  000000000048800000000004940000000000485000000000048900000000004880000000000488000000000049101537000000000000580500000000000284298000000000000000009999123100000010000000000000BRLIGTACNOR2125
012026022408JFEN3       010JOAO FORTES ON           R$  000000000009600000000000980000000000095000000000009500000000000950000000000095000000000009700037000000000000042500000000000004079100000000000000009999123100000010000000000000BRJFENACNOR0061
012026022408CTSA4       010SANTANENSE  PN           R$  000000000017600000000001760000000000176000000000017600000000001760000000000172000000000021800001000000000000000100000000000000017600000000000000009999123100000010000000000000BRCTSAACNPR0063
012026022408RPMG3       010PET MANGUINHON           R$  000000000022000000000002240000000000220000000000022000000000002240000000000220000000000022400006000000000000001000000000000000220800000000000000009999123100000010000000000000BRRPMGACNOR9194
012026022408RSID3       010ROSSI RESID ON      NM   R$  000000000016500000000001650000000000165000000000016500000000001650000000000165000000000017000003000000000000000800000000000000132000000000000000009999123100000010000000000000BRRSIDACNOR8121
012026022408CTAX3       010CONTAX      ON           R$  000000000008200000000000820000000000082000000000008200000000000820000000000081000000000008300002000000000000020000000000000001640000000000000000009999123100000010000000000000BRCTAXACNOR3119
012026022410PGMN9       010PAGUE MENOS ON  REC NM   R$  000000000075900000000007600000000000660000000000075200000000006600000000000660000000000075700005000000000000001600000000000001204600000000000000009999123100000010000000000000BRPGMNR06OR2105
012026022410ABCB10      010ABC BRASIL  PN  REC N2   R$  000000000283500000000028350000000002695000000000270400000000027570000000002680000000000283500041000000000000004700000000000012709100000000000000009999123100000010000000000000BRABCBR20PR9149
012026022410PMAM1       010PARANAPANEMADIR ORD NM   R$  000000000000100000000000010000000000001000000000000100000000000010000000000000000000000000100193000000000000771900000000000000771900000000000000009999123100000010000000000000BRPMAMD10OR9045
012026022410BMEB9       010MERCANTIL   ON  REC N1   R$  000000000650000000000067000000000006400000000000654700000000065450000000006409000000000670000039000000000000007400000000000048449300000000000000009999123100000010000000000000BRBMEBR04OR7209
012026022410BMGB2       010BANCO BMG   DIR PRE N1   R$  000000000004700000000000550000000000044000000000004900000000000520000000000051000000000005200269000000000000164100000000000008119300000000000000009999123100000010000000000000BRBMGBD02PR3117
012026022410HYPE1       010HYPERA      DIR ORD NM   R$  000000000026000000000003080000000000246000000000028200000000003000000000000296000000000030000552000000000000401000000000000113149100000000000000009999123100000010000000000000BRHYPED02OR3149
012026022410AZUL12      010AZUL        DIR     N2   R$  000000001810000000000184000000000014600000000001650000000000146000000000014600000000001510000185000000001176000000000000000019418000000000000000009999123110000000000000000000BRAZULD02M17101
012026022410AZUL14      010AZUL        DIR     N2   R$  000000000012100000000002020000000000121000000000010000000000002020000000000202000000000500000009000000000040000000000000000000006541000000000000009999123110000000000000000000BRAZULD03M16101
012026022410AZUL16      010AZUL        DIR     N2   R$  000000002400000000000240000000000015500000000001810000000000155020000000015502000000001750000042000000000084000000000000000001523207000000000000009999123110000000000000000000BRAZULD04M15101
012026022410VIVR13      010VIVER       DIR     NM   R$  000000000000100000000000020000000000001000000000000100000000000010000000000000000000000000100172000000000002475400000000000002475500000000000000009999123100000010000000000000BRVIVRD03M15125
012026022412PATC11      010FII PATC VBICI           R$  000000000393500000000039640000000003926000000000395300000000039560000000003956000000000404600038000000000000000314000000000001241356000000000000009999123100000010000000000000BRPATCCTF002190
012026022412PATL11      010FII PATL VBICI           R$  000000000668300000000066830000000006653000000000666200000000066600000000006655000000000666002012000000000000015492000000000103222087000000000000009999123100000010000000000000BRPATLCTF003166
012026022412RBIR11      010FII RBRES IVCI           R$  000000000907700000000090770000000009077000000000907700000000090770000000009033000000000907700004000000000000000009000000000000081693000000000000009999123100000010000000000000BRRBIRCTF007126
012026022412RBOP11      010FII MERC BR CI           R$  000000002080100000000220980000000020801000000002161000000000210530000000020800000000002209800018000000000000000057000000000001231808000000000000009999123100000010000000000000BRRBOPCTF009129
012026022412RBRD11      010FII RB II   CI           R$  000000000413800000000041380000000004095000000000411200000000041230000000004114000000000412300080000000000000000669000000000002751466000000000000009999123100000010000000000000BRRBRDCTF008283
012026022412RBRL11      010FII RBRL PAXCI           R$  000000000894500000000090610000000008945000000000902900000000090500000000009007000000000905005034000000000000013939000000000125859344000000000000009999123100000010000000000000BRRBRLCTF001174
012026022412RBRP11      010FII RBRP PAXCI           R$  000000000538200000000054080000000005370000000000538200000000053800000000005380000000000539202226000000000000036944000000000198864078000000000000009999123100000010000000000000BRRBRPCTF002193
012026022412RBRR11      010FII RBRR PAXCI  ER       R$  000000000875000000000090250000000008750000000000895100000000088850000000008885000000000890925362000000000000352461000000003154916942000000000000009999123100000010000000000000BRRBRRCTF008201
012026022412RBRS11      010FII RIOB RR CI           R$  000000000387000000000038990000000003588000000000387200000000035930000000003592000000000389900045000000000000003174000000000012291215000000000000009999123100000010000000000000BRRBRSCTF006151
012026022412RBRX11      010FII RBRX PAXCI  ER       R$  000000000084500000000008490000000000841000000000084400000000008440000000000843000000000084419582000000000000528956000000000446478351000000000000009999123100000010000000000000BRRBRXCTF006149
012026022412RBRY11      010FII RBRY PAXCI  ER       R$  000000000967400000000097000000000009609000000000964900000000096510000000009651000000000969911565000000000000063729000000000614930350000000000000009999123100000010000000000000BRRBRYCTF004188
012026022412RBVA11      010FII RIOB VA CI           R$  000000000099300000000009980000000000992000000000099500000000009930000000000993000000000099805767000000000000223478000000000222488563000000000000009999123100000010000000000000BRRBVACTF006188
012026022412RCRB11      010FII RIOB RC CI           R$  000000001409000000000142270000000014063000000001416800000000141240000000014124000000001420900416000000000000003323000000000047082621000000000000009999123100000010000000000000BRRCRBCTF000177
012026022412RCRI11      010FII RCRI    CI  ER       R$  000000001029000000000103030000000010218000000001029500000000102920000000010250000000001029200223000000000000001090000000000011221599000000000000009999123100000010000000000000BRRCRICTF021107
012026022412RDLI11      010FII RDLI    CI  ER       R$  000000001000000000000100000000000009900000000000995000000000099000000000008000000000001000000004000000000000000012000000000000119400000000000000009999123100000010000000000000BRRDLICTF006103
012026022412KCRE11      010FII KINEA CRCI           R$  000000000088600000000008880000000000882000000000088400000000008880000000000884000000000088800569000000000000047092000000000041632838000000000000009999123100000010000000000000BRKCRECTF009145
012026022412KEVE11      010FII EVEN II CI           R$  000000006440000000000644840000000064400000000006445900000000644840000000062500000000006415000003000000000000000007000000000000451216000000000000009999123100000010000000000000BRKEVECTF007126
012026022412KFOF11      010FII KINEAFOFCI           R$  000000000849000000000085460000000008490000000000851900000000085350000000008518000000000853503223000000000000012398000000000105619174000000000000009999123100000010000000000000BRKFOFCTF006189
012026022412KISU11      010FII KILIMA  CI  ES       R$  000000000072500000000007350000000000720000000000072600000000007350000000000734000000000073501956000000000000092416000000000067132507000000000000009999123100000010000000000000BRKISUCTF000165
012026022412KIVO11      010FII KIVO    CI           R$  000000000674300000000067450000000006701000000000672600000000067430000000006743000000000674502025000000000000010350000000000069624254000000000000009999123100000010000000000000BRKIVOCTF007147
012026022412PLAG11      010FII PLAG    CI           R$  000000000621800000000062590000000006178000000000619700000000062330000000006233000000000623500085000000000000001788000000000011081303000000000000009999123100000010000000000000BRPLAGCTF000113
012026022412SMRE11      010FII SMRE    CI           R$  000000000672000000000067850000000006661000000000670600000000067850000000006725000000000678500011000000000000000157000000000001052962000000000000009999123100000010000000000000BRSMRECTF001123
012026022412SNCI11      010FII SUNO CRICI  ER       R$  000000000881400000000088500000000008696000000000876700000000088000000000008786000000000880000890000000000000010518000000000092215439000000000000009999123100000010000000000000BRSNCICTF002156
012026022412SNEL11      010FII SUNO EL CI  ER       R$  000000000085800000000008580000000000851000000000085400000000008520000000000852000000000085305429000000000002082454000000001778445902000000000000009999123100000010000000000000BRSNELCTF010131
012026022412TELM11      010FII TELM    CI  ER       R$  000000000099000000000009990000000000990000000000099400000000009990000000000998000000000099900002000000000000000008000000000000007956000000000000009999123100000010000000000000BRTELMCTF002117
012026022412TEPP11      010FII TEL PROPCI           R$  000000000093000000000009350000000000920000000000092600000000009280000000000922000000000092806047000000000000373784000000000346235282000000000000009999123100000010000000000000BRTEPPCTF006171
012026022412TGAR11      010FII TG ATIVOCI           R$  000000000804100000000080980000000007981000000000803000000000079810000000007981000000000801007972000000000000110985000000000891318880000000000000009999123100000010000000000000BRTGARCTF009211
012026022412JPPA11      010FII JPPA CRICI           R$  000000000855300000000086000000000008553000000000859000000000085960000000008575000000000859600110000000000000001274000000000010943816000000000000009999123100000010000000000000BRJPPACTF005181
012026022412JSAF11      010FII JS A FINCI           R$  000000000080000000000008030000000000797000000000079900000000008030000000000798000000000080308534000000000000252624000000000201873390000000000000009999123100000010000000000000BRJSAFCTF000154
012026022412JSCR11      010FII JSCR    CI           R$  000000000084200000000008560000000000840000000000084500000000008450000000000845000000000084800537000000000000090732000000000076722280000000000000009999123100000010000000000000BRJSCRCTF001120
012026022412JSRE11      010FII JS REAL CI           R$  000000000675600000000067560000000006700000000000672200000000067250000000006704000000000672501874000000000000026150000000000175795498000000000000009999123100000010000000000000BRJSRECTF007282
012026022412EURO11      010FII EUROPAR CI           R$  000000003269800000000326980000000032500000000003251600000000325010000000032501000000003269700013000000000000000118000000000003836891000000000000009999123100000010000000000000BREUROCTF011380
012026022412GGRC11      010FII GGRCOVEPCI           R$  000000000101400000000010170000000001013000000000101400000000010160000000001015000000000101625144000000000000887024000000000899902439000000000000009999123100000010000000000000BRGGRCCTF002217
012026022412GLOG11      010FII PLURAL LCI           R$  000000000728500000000073000000000007052000000000718900000000073000000000007102000000000740100043000000000000001025000000000007369049000000000000009999123100000010000000000000BRGLOGCTF000133
012026022412GLPF11      010FII GLPF    CI           R$  000000001061800000000106180000000010618000000001061800000000106180000000000001000000000000000001000000000000001170000000000012423060000000000000009999123100000010000000000000BRGLPFCTF009112
012026022412HCHG11      010FII HECT CRICI           R$  000000000839500000000083950000000008395000000000839500000000083950000000008021000000000839400001000000000000000003000000000000025185000000000000009999123100000010000000000000BRHCHGCTF001156
012026022412HCRI11      010FII CRIANCA CI  ER       R$  000000002930700000000297990000000029307000000002953800000000297190000000029401000000002979700022000000000000000074000000000002185833000000000000009999123100000010000000000000BRHCRICTF006349
012026022412HCST11      010FII HECT DESCI           R$  000000000681700000000078350000000006817000000000758000000000078350000000004555000000000900000009000000000000000012000000000000090966000000000000009999123100000010000000000000BRHCSTCTF001103
012026022412HCTR11      010FII HECTARE CI           R$  000000000215600000000021900000000002154000000000216400000000021680000000002168000000000217101808000000000000041645000000000090131375000000000000009999123100000010000000000000BRHCTRCTF003189
012026022412HDEL11      010FII HEDGE DVCI           R$  000000001015500000000101550000000010155000000001015500000000101550000000010000000000001015500001000000000000000001000000000000010155000000000000009999123100000010000000000000BRHDELCTF006107
012026022412ITIT11      010FII INTER ITCI           R$  000000000735000000000073750000000007313000000000734100000000073350000000007325000000000733500105000000000000001703000000000012503022000000000000009999123100000010000000000000BRITITCTF004149
012026022412ITRI11      010FII ITRI    CI           R$  000000000847900000000084790000000008403000000000842500000000084420000000008442000000000844303520000000000000014950000000000125958740000000000000009999123100000010000000000000BRITRICTF008122
012026022412FIGS11      010FII GEN SHOPCI           R$  000000000509600000000051400000000005058000000000510900000000051140000000005114000000000512900149000000000000002689000000000013739537000000000000009999123100000010000000000000BRFIGSCTF009248
012026022412FIIB11      010FII INDL BR CI           R$  000000004779200000000479790000000047638000000004785300000000479790000000047710000000004797900122000000000000000722000000000034550548000000000000009999123100000010000000000000BRFIIBCTF001271
012026022412FIIP11      010FII RB CAP ICI           R$  000000001399300000000141480000000013855000000001400900000000141450000000014001000000001414500114000000000000002669000000000037391358000000000000009999123100000010000000000000BRFIIPCTF001295
012026022412FISC11      010FII SC 401  CI           R$  000000000671000000000067100000000006710000000000671000000000067100000000006200000000000671000008000000000000000008000000000000053680000000000000009999123100000010000000000000BRFISCCTF008156
012026022412FIVN11      010FII VIDANOVACI           R$  000000000027000000000002700000000000262000000000026500000000002640000000000262000000000026600043000000000000000983000000000000260597000000000000009999123100000010000000000000BRFIVNCTF009100
